:020000040800F2
:1000000038B00020A901000885370008F12F00084A
:10001000B13600089D040008B5400008000000004B
:10002000000000000000000000000000C1370008D0
:10003000610A00080000000087370008F73900084F
:10004000C3010008C3010008C3010008C301000880
:10005000C3010008C3010008C3010008C301000870
:10006000C3010008C3010008C3010008150A000805
:10007000C3010008C3010008C3010008C301000850
:10008000C3010008C3010008C3010008C301000840
:10009000C3010008C3010008C3010008C301000830
:1000A000C3010008E53A0008AD3A0008C3010008A2
:1000B000C3010008C3010008C3010008C301000810
:1000C000C3010008C3010008C3010008C301000800
:1000D000C3010008C3010008C30100089D400008D7
:1000E000C3010008C3010008C3010008C3010008E0
:1000F000C3010008C3010008C3010008C3010008D0
:10010000C30100080000000000000000C301000857
:10011000C3010008C3010008C3010008C3010008AF
:10012000C3010008C3010008C3010008C30100089F
:10013000C3010008C3010008000000000000000027
:10014000C3010008C3010008C3010008000000004B
:10015000000000000000000000000000000000009F
:10016000C3010008C3010008C3010008C30100085F
:10017000C3010008C3010008C3010008C30100084F
:10018000C3010008C30100080000000000000000D7
:10019000C3010008DFF80CD000F0FAF8004800476F
:1001A0003142000838B00020064880470648004722
:1001B000FEE7FEE7FEE7FEE7FEE7FEE7FEE7FEE717
:1001C000FEE7FEE7913A0008950100082DE9F05F8F
:1001D0000546002092469B468846064681464024B6
:1001E0001BE0284641464746224600F020F8534689
:1001F0005A46C01A914110D311461846224600F0C3
:1002000081F82D1A67EB01084F4622460120002194
:1002100000F078F817EB00094E41201EA4F101040C
:10022000DFDC484631462A464346BDE8F09F202A97
:1002300004DB203A21FA02F00021704721FA02F390
:10024000D040C2F12002914008431946704740EA6D
:1002500001039B0703D009E008C9121F08C0042A44
:10026000FAD203E011F8013B00F8013B521EF9D22B
:100270007047D2B201E000F8012B491EFBD2704753
:100280000022F6E710B513460A4604461946FFF762
:10029000F0FF204610BDF0B4CA17CB0F50405140BC
:1002A000C61841F100054FEAC372314628004FF0ED
:1002B000960303D0B623F0BC00F03CB830460021D2
:1002C000F9E710B500F0004420F00040C20DC0F383
:1002D000160040F400007F2A02DA0020014610BD1B
:1002E0000021962A03DCC2F19602D04002E0963A41
:1002F00000F008F8002CF2D00023D0EB030063EBF1
:10030000010110BD202A04DB203A00FA02F100208E
:1003100070479140C2F1200320FA03F31943904043
:1003200070470029A8BF7047401C490008BF20F053
:100330000100704710B4B0FA80FC00FA0CF050EAEB
:10034000010404BF10BC704749B1CCF1200421FA6C
:1003500004F411FA0CF118BF012121430843A3EB67
:100360000C01CB1D4FEA00614FEA102042BF002074
:1003700010BC704700EBC35010440029A4BF10BC50
:100380007047401C490008BF20F0010010BC7047B6
:10039000064C074D06E0E06840F0010394E80700D2
:1003A00098471034AC42F6D3FFF7F8FEEC42000851
:1003B0000C43000870B504462068816801F0030111
:1003C00001292FD10168C9072CD0816801F00D01E6
:1003D000012909D0206C40F010002064606C40F0CE
:1003E00001006064012070BD816841F002018160FC
:1003F00021680320086001F037FD05460EE001F09A
:1004000033FD401B022809D9206C40F01000206405
:10041000606C40F001006064012070BD206880685D
:10042000C007ECD1002070BD70B50446206881681B
:1004300001F00301012902D10168C90729D18168AE
:10044000154A114209D0206C40F010002064606C05
:1004500040F001006064012070BD816841F001013D
:10046000816001F001FD05460EE001F0FDFC401B3E
:10047000022809D9206C40F010002064606C40F024
:1004800001006064012070BD20680068C043C0079F
:10049000EBD1002070BD00003F000080FEE730B5CA
:1004A00000F580439C6C002C21D0DD6B5C6CAC4271
:1004B00003D100209864801E30BD00EB840404F555
:1004C000804464680C60596C00EB810000F580404A
:1004D00040691060586C411C022901D2401C00E0A8
:1004E000401E5864986C401E9864002030BD4FF048
:1004F000FF3030BD3CB500F580439A6C002A22D015
:1005000093F83820002562B95A6C00EB820202F59C
:1005100080425468DC6252695A631D63012283F889
:1005200038201A6B541C1C63DC6AA25C0A70D3E985
:100530000C12914205D383F838506A4601A9FFF79F
:10054000AEFF00203CBD4FF0FF303CBD10B500F5C4
:100550008043DC6B00EB840404F580446160D96B5C
:1005600000EB810000F580404261D86B411C0229FC
:1005700001D2401C00E0401ED863986C401C986477
:10058000002010BD00B500F58041002281F8282030
:100590004A6AC969FFF7DAFF002000BD30B500F5EF
:1005A00080424FF48045136C00240B44AB4200D3CF
:1005B0001464136C801C1844D061516214620124CD
:1005C00082F828405C18AC4202D3A1F580415C1847
:1005D000146430BD10B500F58040D0E908345A1CD1
:1005E000A34204D20262C069C154002010BD02625D
:1005F0004FF0FF3010BD00F58040002180F828103A
:1006000001620020704700F58040416A006A081AC4
:10061000704700F58040806C704702464FF0FF3015
:1006200040F2012300290FD0802A71D07EDC212ADC
:1006300070D061DC112A6ED055DC062A6CD2DFE85E
:1006400002F0A1A3A5A7A9AB932A3CD016DC422AAD
:1006500031D009DC302A28D0312A28D0402A28D0AD
:10066000412A00D101207047512A26D0902A26D055
:10067000912A26D0922AF6D118467047F02A2AD01D
:1006800009DCAD2A21D0B02A21D0B12A21D0C02A3C
:10069000F3D102207047F12A1FD0F22A1FD0F32A8B
:1006A0001FD0F42AF6D11846704701207047012068
:1006B000704701207047022070478120704718461C
:1006C00070471846704711207047892070470320F3
:1006D00070471920704718467047184670471846EB
:1006E000704718467047122A5AD0132A5AD0142A33
:1006F0005AD0202A46D159E0402A63D00DDC222A64
:1007000058D0232A58D0302A58D0312A3AD157E02D
:1007100062E00BE04CE041E034E0412A54D0422A50
:1007200054D0502A54D0512A2CD153E0B12A67D04A
:1007300014DC932A5AD008DC832A4FD0902A4FD059
:10074000912A4FD0922A1DD14EE0AB2A50D0AC2A2C
:1007500050D0AD2A50D0B02A14D14FE0F02A59D051
:1007600008DCD12A4ED0D22A4ED0D32A4ED0D42A59
:1007700008D14DE0F12A4FD0F22A4FD0F32A4FD0C2
:10078000F42A4FD00120704718467047184670472A
:1007900018467047012070470120704702207047BB
:1007A00005207047032070470620704715207047CA
:1007B0001520704719207047192070470120704795
:1007C00001207047012070470120704702207047C8
:1007D00001207047012070470120704702207047B8
:1007E00001207047012070470120704702207047A8
:1007F000022070470220704789207047032070470D
:10080000192070470D2070470F2070470120704756
:100810000F207047184670471846704718467047B3
:10082000184670471846704700B50246084600F063
:10083000C8F802F50042983251600868106000BDA7
:1008400044F24C031844FFF72ABE44F24C0108441A
:10085000FFF798BE44F24C021044FFF7BBBE2DE9EF
:10086000F04107464FF0FF3544F24C0007EB00081B
:1008700007F50044D4F898000268920651D5C26981
:1008800092064ED5C26922F02002C261D4F89800C7
:10089000808CC6B2D4F8A00082053BD544F2280073
:1008A00010F8080060B93046FFF7B7FE014600298E
:1008B00003DD4046FFF772FE02E04046FFF79BFE75
:1008C0004046FFF7A0FE00280FDD31463846FFF70F
:1008D000C1FF401C25D14046FFF78DFE54F8A00F04
:1008E00020F40070206000251BE03E2E08D040461A
:1008F000FFF781FE54F8A00F20F40070206010E094
:100900003846FFF7A2FF54F8A00F20F400702060D3
:10091000002506E03C2E04D140F40070C4F8A0008D
:1009200000252846BDE8F081FFF7E4BD70B5044618
:100930000E46154629462046FFF730FE2A46314628
:10094000FFF785FC2046FFF71DFE04F50044D4F8B0
:100950009800016841F089010160002070BD38B540
:1009600005464FF0FF3005F50044D4F898100A68AA
:10097000120613D5C969090610D52846FFF749FEA6
:10098000002816DD69462846FFF7CEFF38B1D4F8B7
:100990009800016821F080010160002038BDD4F882
:1009A0009800C1690906FCD59DF80010018500205A
:1009B00038BDD4F89800016821F080010160002062
:1009C00038BD704714300A6882624A68C2628A6819
:1009D0000263CA6842630A8A02878A8A42870A8B4C
:1009E00082878A8BC28791ED080A80ED080A91ED13
:1009F000090A80ED090A8A6A40F8102CC96A40F891
:100A0000081C0022426182610021C1604260826054
:100A100070470000014801F0B3B80000F08F0020DB
:100A20000C4B01681422994208D20B4B1944B1FBBC
:100A3000F2F1890001640949C1637047054B5B42CB
:100A40001944B1FBF2F18900016402490839C1631C
:100A50007047000008040240F8FFFDBF000002409C
:100A6000704700002DE9F04F8BB014AD0446E0CD87
:100A70005048D0F84CC0CDF81CC0006D0890BDF8AF
:100A80001C000844ADF82400BDF81E001044ADF869
:100A90002600BDF820001844ADF828004648D0E9EB
:100AA00003124069CDE90412069095FBF4F0019021
:100AB00096FBF4F0029097FBF4F003900026DFF829
:100AC000F4804FF0FF3B09AF08F14C08DFF8ECA0D1
:100AD0000DF104095AE00498049937F9100006FB57
:100AE000140028F811000598059937F9100006FB45
:100AF000140028F81100002512E00698069937F92D
:100B0000100005FB040028F811002A4803214C308E
:100B100003F0D2FA02F08EFDDAF80000F0B36D1C9B
:100B2000069859F82000A842E7DA0598761C59F88B
:100B30002000864229DC0498049937F9100006FB4E
:100B4000140028F811000598059937F9100006FBE4
:100B5000140028F81100069859F82050002D14DBD5
:100B60000698069937F9100005FB040028F81100D3
:100B7000104803214C3003F09FFA02F05BFDDAF8D5
:100B80000000A0B16D1E002DEADA761C059859F818
:100B90002000B0429FDA032107A800E005E003F03F
:100BA0008BFA00200BB0BDE8F08F5846FAE75846A4
:100BB000F8E70000988F00209C4200080000002009
:100BC000704700F6B830002242600160028240F2B5
:100BD000DC51C1608260A0F6B830002102E020F84C
:100BE0001120491CD0F8C43B8B42F8DC7047B0F8A8
:100BF000C82B920702D54FF0FF3070470122A0F8B2
:100C0000C82BD0F8C02B531CC0F8C03BD0F8B83B61
:100C100000EB420291FBF3F113881944118000F5B7
:100C20003C6106C9914210DB0021C0F8C01BD0F81E
:100C3000BC1B491CC0F8BC1BD0F8B82B914202DB8E
:100C40000221A0F8C81B01207047002070472DE941
:100C5000F04104460D4694F83C0001280AD04FF0BC
:100C6000010884F83C802046FFF7A4FB06460027D5
:100C70001EB132E00220BDE8F081C4F84080206857
:100C8000816821F080418160012D04D12068816854
:100C900041F0804181602068816841F000418160BD
:100CA00001F0E2F805460EE001F0DEF8401B0A28EC
:100CB00009D9206C20F0020040F01000206484F874
:100CC0003C700120D7E7206880680028ECDB206CAE
:100CD00020F0020040F00100206484F83C703046AF
:100CE000C9E700002DE9F04F95B0002300250095DD
:100CF0000024026990F83C60012E14D0012780F88E
:100D00003C70DFF800E441F20C0A41F2180BFE4E91
:100D1000DFF8F893DFF8F8C34AB18A69012A06D0F0
:100D2000C46CACB374E0022015B0BDE8F08F4A6823
:100D3000012A05D0026C42F020020264012388E0FF
:100D40000A6A012A25D00468644501D0B44217D14B
:100D5000082A07D0142A07D01C2A07D04A4507D1F1
:100D60004A460FE034220DE01C220BE0102209E07D
:100D7000524501D1142205E05A4503D12C2201E04D
:100D800022F480520C6842EA04224C6A224303E0B7
:100D90000DE00A6844EA02220468D4F84C8008EAAC
:100DA0000E0848EA0208C4F84C80826451E0C2642C
:100DB00085640A6A012A28D00468D1F82480644531
:100DC00001D0B44217D1082A07D0142A07D01C2A10
:100DD00007D04A4507D14A460FE034220DE01C22D5
:100DE0000BE0102209E0524501D1142205E05A45DA
:100DF00003D12C2201E022F480528C69641E22432C
:100E000048EA0208C0F8488002E08A69521E8264FB
:100E10000C79826C04EB4408022404EB48044FF084
:100E20001F0808FA04F822EA0802D1F8008008FA3C
:100E300004F842EA08028264C46C641EC46444B9C3
:100E40000468D4F84C8008EA0E0848EA0208C4F89E
:100E50004C8002689468240720D44C7F5CB1D4682D
:100E600091F81E8024F4401444EA4854D4600A7F68
:100E7000012A0ED012E08C7F91F81C80640544EAB0
:100E80000854D2F80C8028F4401844EA0804D460CE
:100E900004E0026C42F020020264012302689468BC
:100EA0004FF0070914F00C0F7DD10C6A012C07D00C
:100EB000D46824F00074D4604A7F012A09D00DE080
:100EC000D46891F81D8024F0007444EA4864D4602A
:100ED00004E0026C42F02002026401230A680A2A3C
:100EE00012D30468D4F818800A3A02EB420209FAD5
:100EF00002FA28EA0A08D1F808A00AFA02FA48EA2F
:100F00000A08C4F8188010E00468D4F8148002EBD2
:100F1000420209FA02FA28EA0A08D1F808A00AFAF5
:100F200002FA48EA0A08C4F8148002684C69D2F848
:100F30000C80C8F3C1084FEA480804FA08F4D1F855
:100F40001080DFF8D0A1B8F1010F44D0B8F1020F42
:100F50004FD0B8F1030F5AD0B8F1040F65D0146E1A
:100F600091F8008004F0F844B4EB886F03D1146E5C
:100F700024F0004414660268546E91F8008004F076
:100F8000F844B4EB886F03D1546E24F000445466E7
:100F90000268946E91F8008004F0F844B4EB886F16
:100FA00005D1946E00E00FE024F0004494660268DE
:100FB000D46E91F8008004F0F844B4EB886F03D14C
:100FC000D46E24F00044D4660268946804F00304EC
:100FD000012C3BD137E0D2F8608008EA0A0891F88A
:100FE00000A044EA8A6448EA040848F00044146611
:100FF000EAE7D2F8648008EA0A0891F800A044EA17
:101000008A6448EA040848F000445466DCE7D2F8F1
:10101000688008EA0A0891F800A044EA8A6448EA6D
:10102000040848F000449466CEE7D2F86C8008EAE1
:101030000A0891F800A044EA8A6448EA040848F0E3
:101040000044D466C0E71468E4076BD1CC68012C77
:1010500008D052F8B04F91F8008007FA08F7BC4367
:1010600014602BE052F8B04F91F8008007FA08F7AF
:101070003C4314600A680A2A10D30468A769093A35
:1010800002EB4202D1F8088009FA02F927EA0907BF
:1010900008FA02F847EA0807A7610FE004686769E1
:1010A000521C02EB4202D1F8088009FA02F927EA41
:1010B000090708FA02F847EA0807676104684FF071
:1010C000A047DFF85480BC4201D0444501D1134A07
:1010D00000E0134A0968102904D1D2F808905FEAA9
:1010E00009290DD5112904D1D2F808905FEAC91950
:1010F00006D5122942D1D2F808905FEA49293DD499
:10110000BC4210E0002008820005005008000100E9
:101110000004005000F0FF83000100500003005065
:10112000000700502AE002D1CDF804800DE04445CC
:1011300001D1019709E0644501D1019605E0B4426F
:1011400002D1CDF804C000E00195A66806F00306C0
:10115000012E02D12668F6070BD1019E96B1019EA1
:10116000B66806F00306012E0CD1019E3668F6071C
:1011700008D0016C41F020010164012380F83C504B
:101180001846D1E5102916D1BC4214D1916841F41A
:10119000000191601049114A0968B1FBF2F101EBBD
:1011A00081014900009102E00099491E00910099D7
:1011B0000029F9D1E2E7112906D1BC4204D1916896
:1011C00041F080719160D9E71229D7D1916841F43B
:1011D00080019160D2E700001000002040420F0023
:1011E0002DE9F04104460D46606908280DD06027BE
:1011F00020684FF0A0412C4B884201D0984206D184
:10120000D1F8082302F01F0205E04027F0E7274A43
:10121000126802F01F0222B1884202D0244A904292
:1012200001D1C66803E0984200D01146CE6800F0B4
:101230001BFE804612E0681C10D02DB100F014FE99
:10124000A0EB0800A84209D9206C40F004002064FB
:10125000002084F83C000320BDE8F081206800688D
:101260003842E8D0206C40F4005020642068C16C03
:1012700011F0C00F07D0B10110D4C16811F4406F54
:101280000CD1B1040AD4216C21F480512164216C69
:10129000C90503D4216C41F001012164710400D41B
:1012A00007600020D8E70000000100500807005048
:1012B000000400502DE9F0410446206880680007D2
:1012C00079D494F83C0001280BD0012084F83C002C
:1012D0002046FFF7A9F80146002729B184F83C70A1
:1012E0006AE00220BDE8F081206C42F201029043E6
:1012F00040F48050206420684FF0A0462F4B304DC2
:10130000B04201D0984204D1D6F8082302F01F025F
:1013100002E02A6802F01F02DFF8A8C01AB1B0424A
:1013200001D0604504D1226C22F48012226403E0D3
:10133000226C42F480122264226CD20500D46764CD
:1013400084F83C70602202602068C268920133D445
:10135000B04201D0984204D1D6F8082302F01F020F
:1013600002E02A6802F01F02FAB1B04201D09842AE
:1013700004D1D6F8082302F01F0202E02A6802F026
:101380001F02062A11D0B04201D0984204D1D6F8EB
:10139000082302F01F0202E02A6802F01F02072A57
:1013A00003D0B04201D0604506D1826842F0080205
:1013B000826001E0FFE70221084693E70001005048
:1013C0000807005000040050F0B594B000230268F4
:1013D0004FF0A0453F4C0026AA4201D1009410E0F6
:1013E000A24201D100950CE03B4FDFF8F0C0BA42B9
:1013F00002D1CDF800C004E0624501D1009700E0C1
:101400000096009F9FB190F83C70012F12D00127E9
:1014100080F83C7097687F0753D4009FBF687F07B0
:101420004FD4AA4201D0A24206D12D4A05E00120A4
:1014300014B0F0BD0220FBE72A4A0C6840F61F7585
:1014400024B3946890F8307024F4604444EA47343C
:101450004F683C4394600468A76807F00307012FB6
:1014600002D12468E40731D1009CA46804F003048D
:10147000012C03D1009C2468E40727D10C688968FB
:101480000C439168A9430C4394601FE0916821F4D8
:101490006041916001688C6804F00304012C02D162
:1014A0000968C90712D10099896801F0030101296F
:1014B00003D100990968C90708D19168A9439160CF
:1014C00004E0016C41F020010164012380F83C60DC
:1014D0001846ADE700010050000400500005005020
:1014E00000030050000700502DE9F04195B00025A1
:1014F0000026009690F83C20012A19D0012780F898
:101500003C70026893685B077ED44B681F24052BF0
:1015100012D2D2F830C003EB43035B009C402CEAAC
:10152000040C0C689C404CEA040CC2F830C036E055
:10153000022015B0BDE8F0810A2B0FD2D2F834C0DA
:101540005B1F03EB43035B009C402CEA040C0C681C
:101550009C404CEA040CC2F834C020E00F2B0FD2A0
:10156000D2F838C00A3B03EB43035B009C402CEAF3
:10157000040C0C689C404CEA040CC2F838C00EE025
:10158000D2F83CC00F3B03EB43035B009C402CEACA
:10159000040C0C689C404CEA040CC2F83CC0026885
:1015A00093684FF0070C13F00C0F63D10B680A2BF4
:1015B0000FD394690A3B03EB43030CFA03F824EAC4
:1015C0000804D1F8088008FA03F844EA0804946192
:1015D0000DE0546903EB43030CFA03F824EA080412
:1015E000D1F8088008FA03F844EA08045461026854
:1015F0004B69D468C4F3C1046400A3400C69DFF8EC
:101600004882012C3DD000E015E1022C45D0032C8E
:101610004FD0042C59D0136E0C7803F0F843B3EB81
:10162000846F03D1136E23F0004313660268536E78
:101630000C7803F0F843B3EB846F03D1536E23F0BF
:10164000004353660268936E0C7803F0F843B3EBE3
:10165000846F03D1936E23F0004393660268D36EC8
:101660000C7803F0F843B3EB846F03D1D36E23F00F
:101670000043D3660268936803F00303012B33D160
:101680002FE0146E04EA080491F8008043EA8863AE
:101690001C4344F000431366ECE7546E04EA08046C
:1016A00091F8008043EA88631C4344F0004353668A
:1016B000E0E7946E04EA080491F8008043EA886346
:1016C0001C4344F000439366D4E7D46E04EA080454
:1016D00091F8008043EA88631C4344F00043D366DA
:1016E000C8E71368DB077CD1CB68012B06D052F822
:1016F000B03F0C78A740BB43136023E052F8B03FE3
:101700000C78A7403B4313600A680A2A0DD303688C
:101710009C69093A02EB42020CFA02FC8F6824EA47
:101720000C0497403C439C610CE003685C69521CCC
:1017300002EB42020CFA02FC8F6824EA0C04974088
:101740003C435C6103684FF0A044404FA34201D08A
:10175000BB4201D13E4A00E03E4A0968102904D14B
:10176000D2F808C05FEA0C2C0DD5112904D1D2F8AB
:1017700008C05FEACC1C06D5122961D1D2F808C096
:101780005FEA4C2C5CD4A34201D1019710E0BB422C
:1017900001D101940CE0304FDFF8C0C0BB4202D150
:1017A000CDF804C004E0634501D1019700E0019643
:1017B0009F6807F00307012F02D11F68FF070BD1B5
:1017C000019F7FB1019FBF6807F00307012F09D177
:1017D000019F3F68FF0705D0016C41F020010164C3
:1017E00001252DE0102916D1A34214D1916841F4AE
:1017F000000191601A491B4A0968B1FBF2F101EB43
:1018000081014900009102E00099491E0091009970
:101810000029F9D114E0112906D1A34204D191681D
:1018200041F0807191600BE0122909D1916841F477
:101830008001916004E0016C41F020010164012508
:1018400080F83C60284674E600F0FF8300010050F9
:101850000003005000070050000400500005005035
:101860001000002040420F002DE9F04196B00446E0
:101870000025002700260196002C05D0206CC0060C
:101880004CD4206C20B137E0012016B0BDE8F081C7
:101890006664E664A66484F83C60204600F028F99B
:1018A00020688068C00027D42046FEF783FD0546E7
:1018B000206CC00620D4FDB9206C20F4885040F084
:1018C000020020642068816821F040518160206816
:1018D000816841F0805181607D487E490068B0FB9D
:1018E000F1F000EB80004000019002E00198401E02
:1018F000019001980028F9D120688168C90002D5BB
:10190000806880000AD5206C20F0020040F01000B2
:101910002064606C40F0010060640125206CC0060A
:1019200073D4002D71D12068816849076DD4216C72
:1019300021F4807141F0020121644FF0A048664A11
:10194000404501D0904201D1644900E06449654BB3
:10195000DFF894C1404501D102920EE0904202D1DD
:10196000CDF8088009E0604501D1029305E0984276
:1019700002D1CDF808C000E00296826802F00302AE
:10198000012A02D10068C00711D1029848B102981B
:10199000806800F00300012803D102980068C007A6
:1019A00005D18868626820F4403010438860D4E92B
:1019B00002010143606B012802D04FF4805200E025
:1019C0000022607E42EA40321143394394F82020DD
:1019D000012A0AD1D0B1206C20F0020040F0200092
:1019E0002064606C40F001006064A06A012836D079
:1019F0002268624501D09A422CD14FF430734FF4E3
:101A0000E072984209D1104626E058E0A08C401EB2
:101A100041EA404040F48031E7E74FF48077B84234
:101A200001D1184618E0904201D1384614E0B0F5D3
:101A30008A5F06D0B0F5845F06D0B0F5865F06D029
:101A40000AE04FF4707007E04FF4A07004E04FF428
:101A5000C07001E020F480500843E16A014320682F
:101A6000826812F00C0F0BD1C26844F202039A4351
:101A7000C260207E94F83020800340EA4200014397
:101A80002068C268194B1A400A43C26020690128C5
:101A90000CD02068016B21F00F0101636664206C9B
:101AA00020F0020040F0010020640FE02068016B8C
:101AB000E26921F00F01521E11430163EEE7206C31
:101AC00020F0020040F01000206401252846DCE6EA
:101AD0001000002040420F000001005000030050A1
:101AE00000070050000500500004005007C0F0FF40
:101AF00070B586B00546142101A8FEF7C1FB286821
:101B0000B0F1A04F33D11B49486940F08050486183
:101B1000486900F080500090486940F40030486106
:101B2000486900F4003000900D20019003200290DD
:101B30000026039601A94FF0904000F0B7F80F4C33
:101B40000D4820606660A6608020E0604000206153
:101B5000800060612020A0614FF44050E061204689
:101B600000F06BF808B1FFF72BF8AC63656206B0C4
:101B700070BD00000010024008000240F08F0020FD
:101B8000F0B4C16B0A6801680B68046C042606FA9D
:101B900004F5154213D05D0711D50A68920603D4E7
:101BA0000A6822F004020A6090F8401006FA01F573
:101BB000C16B4D60C16A00293DD0F0BC08474FF0B1
:101BC000020C0CFA04F616424FF000074FF0010524
:101BD00017D09E0715D50A68920605D40A6822F028
:101BE0000A020A6080F8215090F840100CFA01F6C1
:101BF000C16B4E6080F82070816A00291BD0F0BC58
:101C000008470826A640164215D01A0713D50A68B9
:101C100022F00E020A6090F84010C26B05FA01F142
:101C20005160856380F8215080F82070016B002995
:101C300001D0F0BC0847F0BC704770B50446002CDA
:101C400020D0022084F821002068026843F6F07159
:101C50008A43D4E901131943D4E903352B431943CB
:101C600063691943A3691943E36919431143016087
:101C70002046FEF7D5FE00202034A06101216170CE
:101C8000207070BD012070BD70B5044600F0ECF806
:101C90000546601C02D004480078044400F0E4F8D3
:101CA000401BA042FAD370BD040000202DE9F84F7C
:101CB0000022DFF88481DFF880A14FF0010E4FF0A1
:101CC0000F0C08F104090AF10C0AAEE00EFA02F654
:101CD0003340002B70D04C68022C01D0122C11D153
:101CE000D40800EB84073D6A5407E40E0CFA04FBA9
:101CF00025EA0B05D1F810B00BFA04FB4BEA050BF3
:101D0000C7F820B0076854000325A540AF4391F8F9
:101D100004B00BF0030B0BFA04FB4BEA070BC0F803
:101D200000B04F68012F05D0022F03D0112F01D032
:101D3000122F11D18768AF43D1F80CB00BFA04FB16
:101D40004BEA070BC0F808B04768B7430E79C6F3F3
:101D5000001696403E434660C668AE438D68A54077
:101D60003543C5604C68E4005ED5344CA56945F048
:101D70000105A561A46904F001040094304C22F02F
:101D800003052E19B7689407250F0CFA05F4A7432D
:101D9000B0F1904F04D02B4CA04203D101241CE0A1
:101DA00000241AE0284CA04201D1022415E0274C5F
:101DB000A04202D1032410E036E0254CA04201D11C
:101DC00004240AE0234CA04201D1052405E0224C62
:101DD000A04201D1062400E00724AC403C43B4609B
:101DE000D8F800409C434D68ED0300D51C43C8F86B
:101DF0000040D9F800409C434D68AD0300D51C431A
:101E0000C9F800400C4D08352C689C434E68F6021A
:101E100000D51C432C60DAF800409C434D68AD02AD
:101E200000D51C43CAF80040521C0B6833FA02F478
:101E30007FF44CAFBDE8F88F000401400010024071
:101E4000000001400004004800080048000C004861
:101E5000001000480014004800180048002A01D073
:101E60008161704781627047014880687047000057
:101E700004000020024881680278114481607047A4
:101E80000400002010B50748016841F0100101600E
:101E9000032000F06FF8002000F006F800F026F8AC
:101EA000002010BD0020024070B504460D4D4FF4D7
:101EB0007A712878B1FBF0F00B490968B1FBF0F0BA
:101EC00000F0A4FE08B1012070BD102C07D2002242
:101ED0002146501E00F02EF86C60002070BD0120DD
:101EE00070BD0000040000201000002008B5094863
:101EF000816941F001018161816901F00101009175
:101F0000C16941F08051C161C06900F0805000900A
:101F100008BD000000100240002809DB00F01F028D
:101F2000012191404009800000F1E020C0F800113B
:101F300070470000F0B40D460D4B1B68C3F302233D
:101F4000C3F10704042C00D90424191D072901D268
:101F5000002300E0DB1E012606FA04F1491E294099
:101F600099409E40761E16403143F0BC02F0F0B816
:101F70000CED00E000F00701054A10684FF6FF0382
:101F8000184040EA012003490843106070470000F0
:101F90000CED00E00000FA052DE9F84F0446A14DD4
:101FA0002068C00370D50026E869C00008D4E8693D
:101FB00040F08050E861E86900F080500090012610
:101FC000994F3868C00513D4386840F48070386081
:101FD000FFF74AFF804608E0FFF746FFA0EB080046
:101FE000642802D90320BDE8F88F3868C005F3D50E
:101FF000286A00F4407078B3A18801F440718142EE
:102000004DD0286A20F440704FF4803191FAA1F24B
:10201000B2FA82F29300854A4FF001081344C3F8E4
:10202000008491FAA1F1B1FA81F102EB8101002360
:10203000C1F800342862C00731D0FFF715FF07460A
:1020400041F2883A4FF0020907E0FFF70DFFC01B8D
:10205000504502D90320C6E721E099FAA9F0B0FA69
:1020600080F040F040004146B8EB501F01D1286895
:102070000CE099FAA9F0B0FA80F040F04000B9EB1A
:10208000501F02D1286A01E015E0686A99FAA9F2A6
:10209000B2FA82F202F01F0291400842D5D0286ABB
:1020A000616820F4407008432862012E03D1E8697A
:1020B00020F08050E8612078C00705D0286BA16827
:1020C00020F00300084328632078800705D5286B9B
:1020D000E16820F44030084328632078400705D5A4
:1020E000286B216920F4402008432863207880066B
:1020F00005D5286BE16920F01000084328632068AB
:10210000800305D56868616D20F48000084368602D
:102110002078400605D5286B216A20F0200008436E
:1021200028632068400305D5286B616A20F04000D1
:10213000084328632078000705D5286B616920F4DF
:102140004010084328632078C00605D5286BA16994
:1021500020F44000084328632088800505D568687E
:10216000216B20F40000084368602078000605D544
:10217000E86AA16A20F4F8700843E8622088C00584
:1021800005D5E86AE16A20F478500843E8622088BF
:10219000C00405D5286B616B20F480700843286368
:1021A0002088800405D5286B216C20F4007008433A
:1021B00028632068C00205D5286BA16B20F08070D1
:1021C000084328632068800205D5286BE16B20F066
:1021D0000070084328632068400205D5286B616CB5
:1021E00020F48060084328632068000205D5286B2E
:1021F000A16C20F40060084328632068C00105D565
:10220000286BE16C20F400500843286320688001AB
:1022100005D5286B216D20F4004008432863002079
:10222000E1E6000000100240007000400000424261
:102230002DE9F04704460D46002C17D0DFF89481B5
:10224000D8F8000000F00700A84211D2D8F800002A
:1022500020F007002843C8F80000D8F8000000F07C
:102260000700A84204D00120BDE8F0870120FBE769
:102270002078594E800705D57068A16820F0F000DD
:10228000084370602078C00765D06068012201288B
:102290000CD0022822D0022393FAA3F1B1FA81F1E3
:1022A00041F02001490931D0316830E04FF400336A
:1022B00093FAA3F1B1FA81F141F02001490901D06B
:1022C000316800E0716A93FAA3F3B3FA83F303F081
:1022D0001F039A40114225D10120C5E74FF000733A
:1022E00093FAA3F1B1FA81F141F02001490901D03B
:1022F000316800E0716A93FAA3F3B3FA83F303F051
:102300001F039A4011420DD10120ADE7716A93FA83
:10231000A3F3B3FA83F303F01F039A40114201D1F0
:102320000120A1E7716821F0030101437160FFF70B
:102330009BFD074641F2883906E0FFF795FDC01B7B
:10234000484501D903208FE77068616800F00C00F0
:10235000B0EB810FF1D1D8F8000000F00700A842DF
:102360000ED9D8F8000020F007002843C8F8000074
:10237000D8F8000000F00700A84201D0012073E760
:102380002078400705D57068E16820F4E0600843D4
:1023900070602078000706D57068216920F46050CD
:1023A00040EAC100706000F051F87168F02292FAC2
:1023B000A2F201F0F001B2FA82F2D140074A515C78
:1023C000C8400749086007480068FFF76DFD002016
:1023D0004AE700000020024000100240D4420008FA
:1023E000100000200800002001480068704700002D
:1023F0001000002000B5FFF7F7FF074949684FF4C8
:10240000E06292FAA2F201F4E061B2FA82F2D14003
:10241000024A515CC84000BD00100240E44200087E
:1024200000B5FFF7E1FF074949684FF4605292FA9F
:10243000A2F201F46051B2FA82F2D140024A515C38
:10244000C84000BD00100240E442000810B5184B1F
:102450005968184801F00C02042A20D0082A1ED11D
:102460004FF4701494FAA4F401F47012B4FA84F4E2
:10247000E240114CA45CDA6A0F2393FAA3F302F052
:102480000F02B3FA83F3DA400B4B10339A5CC903A3
:1024900006D500231946FDF799FEA0FB040110BDE7
:1024A00000231946FDF792FEA0FB040110BD0000B9
:1024B0000010024000127A00B44200082DE9F84FE3
:1024C0000446002C11D02078F74EC0074FF00105CC
:1024D00078D070686F04C0F38100012823D0706841
:1024E000C0F38100022803D007E00120BDE8F88F87
:1024F0007068C0F3C130022815D06068B0F5803F25
:102500002AD070B3B0F5A02F35D0306820F48030D9
:102510003060306820F4802030606068A0B3FFF73E
:10252000A3FC804639E097FAA7F0B0FA80F040F0BB
:102530002000400901D0306800E0706A97FAA7F1E6
:10254000B1FA81F101F01F0105FA01F108425BD0F7
:102550006068B8BB0120C9E7306840F48030306063
:10256000DBE7FFE7306820F480303060306820F42B
:1025700080203060D1E7306840F4802030603068DF
:1025800040F480303060C8E71DE0FFF76DFCA0EB41
:102590000800642801D90320A8E797FAA7F0B0FA49
:1025A00080F040F02000400901D0306800E0706AFF
:1025B00097FAA7F1B1FA81F101F01F0105FA01F1D3
:1025C0000842E2D020E0FFF74FFC804607E0FFF72B
:1025D0004BFCA0EB0800642801D9032086E797FA9A
:1025E000A7F0B0FA80F040F02000400901D0306838
:1025F00000E0706A97FAA7F1B1FA81F101F01F01CA
:1026000005FA01F10842E2D12078DFF8A0828007C4
:102610004FF0000B4FF0020740D570684FF0F80AFA
:1026200010F00C0F15D07068C0F38100022804D19F
:102630007068C0F3C13001280BD0E06878B395FA18
:10264000A5F0B0FA80F048F82050FFF70DFC814665
:102650002EE097FAA7F0B0FA80F040F02000400991
:1026600001D0306800E0706A97FAA7F1B1FA81F101
:1026700001F01F0105FA01F1084204D0E0680128C9
:1026800001D0012032E730689AFAAAF22169B2FA41
:1026900082F220F0F80091400843306050E028E0DA
:1026A000FFF7E2FBA0EB0900022801D903201DE798
:1026B00097FAA7F0B0FA80F040F02000400901D06E
:1026C000306800E0706A97FAA7F1B1FA81F101F081
:1026D0001F0105FA01F10842E2D030689AFAAAF225
:1026E0002169B2FA82F220F0F8009140084330608C
:1026F00026E095FAA5F0B0FA80F048F820B0FFF790
:10270000B3FB814607E0FFF7AFFBA0EB090002280F
:1027100001D90320EAE697FAA7F0B0FA80F040F07A
:102720002000400901D0306800E0706A97FAA7F1F4
:10273000B1FA81F101F01F0105FA01F10842E2D17D
:10274000207800076DD56069A8B395FAA5F0B0FAB6
:1027500080F008EB8000C0F88054FFF785FB8146CD
:1027600007E0FFF781FBA0EB0900022801D9032055
:10277000BCE697FAA7F0B0FA80F040F06000B5EB45
:10278000501F01D130680BE097FAA7F0B0FA80F043
:1027900040F06000B7EB501F01D1306A00E0706A72
:1027A00097FAA7F1B1FA81F101F01F0205FA02F1DF
:1027B0000842D6D035E0FFE795FAA5F0B0FA80F0F0
:1027C00008EB8000C0F880B4FFF74EFB814607E0BD
:1027D000FFF74AFBA0EB0900022801D9032085E698
:1027E00097FAA7F0B0FA80F040F06000B5EB501F08
:1027F00001D130680BE097FAA7F0B0FA80F040F012
:102800006000B7EB501F01D1306A00E0706A97FAA0
:10281000A7F1B1FA81F101F01F0205FA02F10842B5
:10282000D6D1207840076DD54FF00009F069C0007F
:1028300009D4F06940F08050F061F06900F08050F8
:1028400000904FF001091A480168C90513D40168C6
:1028500041F480710160FFF707FB824607E0FFF754
:1028600003FBA0EB0A00642801D903203EE61048D0
:102870000068C005F3D5A068012810D0D0B10528A4
:1028800021D0306A20F001003062306A20F004006C
:102890003062A068A8B3FFF7E7FA824626E0306A04
:1028A00040F001003062F4E70010024000004242B4
:1028B00000700040306A20F001003062306A20F081
:1028C00004003062E5E7306A40F004003062306AAC
:1028D00040F001003062DCE7FFF7C6FAA0EB0A0126
:1028E00041F28830814201D90320FFE597FAA7F031
:1028F000B0FA80F040F04000B5EB501F03D13068D3
:102900000DE017E04CE097FAA7F0B0FA80F040F045
:102910004000B7EB501F01D1306A00E0706A97FAAF
:10292000A7F1B1FA81F101F01F0105FA01F210429D
:10293000D2D02EE0FFF798FA824609E0FFF794FA2A
:10294000A0EB0A0141F28830814201D90320CDE594
:1029500097FAA7F0B0FA80F040F04000B5EB501FB6
:1029600001D130680BE097FAA7F0B0FA80F040F0A0
:102970004000B7EB501F01D1306A00E0706A97FA4F
:10298000A7F1B1FA81F101F01F0105FA01F210423D
:10299000D4D1B9F1010F03D1F06920F08050F0617A
:1029A000A06980B37168C1F38101022973D04FF02F
:1029B00080794FF00077022809D099FAA9F0B0FA8F
:1029C00080F048F820B0FFF74FFA044664E099FA27
:1029D000A9F0B0FA80F048F820B0FFF745FA824637
:1029E00007E0FFF741FAA0EB0A00022801D9032013
:1029F0007CE597FAA7F0B0FA80F040F0200040099B
:102A000002D0306801E074E0706A97FAA7F1B1FA79
:102A100081F101F01F0105FA01F10842E1D1F06AEC
:102A2000616A20F00F000843F062D4E90710084300
:102A3000716821F476110843706099FAA9F0B0FA30
:102A400080F048F82050FFF70FFA044606E0FFF741
:102A50000BFA001B022801D9032047E597FAA7F0DB
:102A6000B0FA80F040F02000400901D0316800E069
:102A7000716A97FAA7F0B0FA80F000F01F0005FA2B
:102A800000F00142E3D034E0FFF7EEF9001B02282A
:102A900002D903202AE515E097FAA7F0B0FA80F0F2
:102AA00040F02000400901D0316800E0716A97FAD7
:102AB000A7F0B0FA80F000F01F0005FA00F0014224
:102AC000E2D116E0012812D07068F16AE36900F4DF
:102AD000C0329A4209D1226A00F47010904204D1A7
:102AE00001F00F00616A884203D00120FEE401205A
:102AF000FCE40020FAE4000070B50446002C02D08B
:102B0000607F10B106E0012070BD002020772046D4
:102B100000F04EF8022060772168CA2048622168E0
:102B200053204862204600F02FFEFF25042620B1E6
:102B3000206845626677012070BD206881681B4A65
:102B4000114081602068816862681143D4E90423E0
:102B50001A43114381602168E068086120680169B7
:102B6000228941EA024101612068C16821F08001A7
:102B7000C16020688068800608D4204600F02CF8E8
:102B800020B1206845626677012070BD2068016C25
:102B900021F4802101642068016CA2691143016461
:102BA0002068456201206077002070BDBFFF8FFF65
:102BB0000068074988420AD10120C10391FAA1F1B6
:102BC000044AB1FA81F102EB8101C1F800047047B7
:102BD000002800400000424270B505462868C168E0
:102BE00021F0A001C160FFF73FF904464FF47A7667
:102BF00006E0FFF739F9001BB04201D9032070BD90
:102C00002868C0688006F4D5002070BD10B5401E4D
:102C1000B0F1807F01D3012010BD4FF0E02460614E
:102C20000F21601701F094FA0020A06107202061B5
:102C3000002010BD70477047704710B50446002C47
:102C400003D094F83D0010B107E0012010BD002032
:102C500084F83C00204600F00DF8022084F83D0086
:102C6000211D206800F088FF012084F83D0000202D
:102C700010BD000008B50068154A1649904211D1F0
:102C8000886940F400308861886900F40030009061
:102C9000002202211920FFF74DF9BDE80840192054
:102CA000FFF73AB90C4A904211D1886940F480206C
:102CB0008861886900F480200090002203211A2096
:102CC000FFF738F9BDE808401A20FFF725B908BD1D
:102CD0000044014000100240004801400168CA68F9
:102CE00042F00102CA6001688868064A104006285E
:102CF00006D0B0F5803F03D0086840F001000860BE
:102D000000207047070001000168CA6822F0010234
:102D1000CA600068016A41F21112114207D1016ACA
:102D20009210114203D1016821F0010101600020DD
:102D30007047704770B50446206801694FF0000580
:102D4000C943890716D4C168C943890712D4E91E4B
:102D500001610120207720688069800703D0204628
:102D6000FFF7E7FF05E0204600F0AAF8204600F054
:102D7000A8F8257720680169C943490718D4C168B4
:102D8000C943490714D46FF0040101610220207780
:102D90002068806910F4407F03D02046FFF7C9FF08
:102DA00005E0204600F08CF8204600F08AF82577F0
:102DB00020680169C943090717D4C168C9430907D5
:102DC00013D46FF008010161042020772068C069E6
:102DD000800703D02046FFF7ACFF05E0204600F057
:102DE0006FF8204600F06DF8257720680169C94327
:102DF000C90618D4C168C943C90614D46FF01001BC
:102E00000161082020772068C06910F4407F03D05A
:102E10002046FFF78EFF05E0204600F051F82046DF
:102E200000F04FF8257720680169C943C90708D128
:102E3000C168C943C90704D1891E0161204600F059
:102E400041F820680169C943090609D4C168C9432A
:102E5000090605D46FF0800101612046FFF7EBFE03
:102E600020680169C943C90509D4C168C943090675
:102E700005D46FF4807101612046FFF7DBFE206806
:102E80000169C943490609D4C168C943490605D443
:102E90006FF040010161204600F015F820680169DB
:102EA000C94389060BD4C168C943890607D46FF0AA
:102EB000200101612046BDE87040FFF7BDBE70BD36
:102EC000704770477047704710B50446002C02D019
:102ED000606F10B107E0012010BD002084F8700081
:102EE000204600F027F8242060672068016821F060
:102EF00001010160204600F033FF012818D0606A0C
:102F000010B1204600F09AFE2068416821F49041FB
:102F100041602068816821F02A0181602068016891
:102F200041F0010101602046BDE8104000F0EABE1A
:102F3000012010BD70B586B00446142101A8FDF72C
:102F40009FF9264E216800222548022303240725E5
:102F5000B1421BD1816941F480418161816901F4F1
:102F600080410091416941F400214161406900F4D0
:102F70000020009030200190029303920494059564
:102F800001A91848FEF792FE06B070BD164EB14278
:102F9000FAD1C16941F48021C161C16901F4802184
:102FA0000091416941F480214161406900F4802031
:102FB00000904FF4406001900293039204940595B1
:102FC00001A90A48FEF772FE002201212720FEF720
:102FD000B1FF2720FEF7A0FFD6E700000038014030
:102FE000001002400008004800480040000400486B
:102FF000FEE700002DE9F04194B0002411941294F2
:10300000139418210BA8FDF73BF9282101A8FDF71F
:1030100037F93A484FF0A0410160446084600125CF
:103020000561447680F8205003264662C4628562BA
:103030002021C160C66180F83040042747610476D2
:103040004463FEF711FC08B1FDF7BAFD119411A914
:103050002A48FEF7B9F908B1FDF7B2FD0B950C95BA
:103060000E940D940F9410940BA92448FEF73CFA8B
:1030700008B1FDF7A5FD0B964FF00208CDF83080A2
:103080000BA91E48FEF730FA08B1FDF799FD0B9722
:103090000C960BA91948FEF727FA08B1FDF790FD29
:1030A000019502950494079603940A9409958DF866
:1030B00021408DF820408DF822400694059401A906
:1030C0000E48FDF70FFE08B1FDF77AFD0196CDF829
:1030D000088001A90948FDF705FE08B1FDF770FD5C
:1030E0000197029601A90548FDF7FCFD002801D0D3
:1030F000FDF766FD14B0BDE8F08100001800002067
:1031000008B50948416941F001014161406900F099
:1031100001000090002211460B20FEF70BFFBDE8D6
:1031200008400B20FEF7F8BE001002402DE9F04FDA
:1031300087B0142102A8FDF7A3F86348416941F460
:1031400000114161416901F400110191416941F4AB
:1031500000214161416901F400210191416941F47B
:1031600080014161416901F480010191416941F4AB
:1031700000314161416901F400310191416941F43B
:1031800080214161416901F480210191416941F44B
:1031900000014161416901F400010191416941F47B
:1031A00080114161406900F480100190DFF81C81BA
:1031B000002244F204014046FEF750FEDFF8109171
:1031C00000220F214846FEF749FE4FF0904A0022A8
:1031D00002215046FEF742FEDFF8F8B044F28107C4
:1031E000002239465846FEF739FE0122D1034046F7
:1031F000FEF734FE002249F24C613748FEF72EFEFE
:103200000022F8213548FEF729FE0420029001250E
:103210000395002404940326059602A94046FEF770
:1032200045FD680302902E480390049402A9484685
:10323000FEF73CFD0F20029003950494059602A929
:103240004846FEF733FD022002900395049405944E
:1032500002A95046FEF72AFD0297039504940594AF
:1032600002A95846FEF722FDB0030290039504948C
:10327000059402A94046FEF719FD49F20C60029040
:1032800003950494059602A91348FEF70FFD40200C
:10329000029003950494059402A90F48FEF706FDD9
:1032A000802002900394049402A90B48FEF7FEFCD0
:1032B000F820029003950494059602A90748FEF7AA
:1032C000F5FC07B0BDE8F08F001002400010004888
:1032D000000800480004004800180048000C00489E
:1032E0000000111010B50B48094901600021416030
:1032F0007F228260FF22C260016141618161FFF72C
:10330000FBFB002803D0BDE81040FDF759BC10BD01
:10331000002800406800002010B50C480A490160F0
:10332000472141600021816040F2E732C2600161C3
:1033300041618161FFF781FC002803D0BDE81040A6
:10334000FDF73EBC10BD0000004401408800002095
:1033500010B50C480A49016041F61F414160002147
:1033600081600A22C2600161416180218161FFF7B1
:1033700064FC002803D0BDE81040FDF721BC10BD5F
:1033800000480140C800002010B50D480B490160FD
:103390004FF4E131416000218160C16001610C2284
:1033A00042618161C16101624162FFF78DFD0028C8
:1033B00003D0BDE81040FDF703BC10BD003801404C
:1033C0000801002010B511480F4901604FF49641E3
:1033D000416000218160C16001610C224261816114
:1033E000C1610162382141624FF400414163C9105B
:1033F00081634900C163FFF767FD002803D0BDE882
:103400001040FDF7DDBB10BD0048004088010020E2
:103410002DE9F04F8BB014AD0446E0CD8248D0F8D2
:103420004CC0CDF81CC0006D0890BDF81C000844CD
:10343000ADF82400BDF81E001044ADF82600BDF81C
:1034400020001844ADF828007848D0E900128068C0
:10345000CDE90412069095FBF4F0019096FBF4F090
:10346000029097FBF4F003900027DFF8BC910DF178
:10347000240809F14C09DFF8B8B10DF1040AC0E0E5
:103480000498049938F9100007FB040029F811008A
:1034900000264AE00598059938F9100006FB04005B
:1034A00029F81100002512E00698069938F9100055
:1034B00005FB040029F811005B4803214C3000F0A3
:1034C000FBFD00F0B7F8DBF80000E8B36D1C0698D0
:1034D0005AF82000A842E7DA0598761C5AF820002E
:1034E000864221DC0598059938F9100006FB040096
:1034F00029F8110006985AF82050002D14DB069880
:10350000069938F9100005FB040029F81100464817
:1035100003214C3000F0D0FD00F08CF8DBF8000007
:1035200060B36D1E002DEADA761C05985AF820006B
:10353000B042AFDA04987F1C5AF8200087425FDC63
:10354000049838F9100000E013E0049907FB040028
:1035500029F8110005995AF82160002E50DB0598D2
:10356000059938F9100006FB040029F81100002520
:103570001AE04FF0FF300BB0BDE8F08F4FF0FF3096
:10358000F9E70698069938F9100005FB040029F8B8
:103590001100254803214C3000F08EFD00F04AF860
:1035A000DBF80000C8B36D1C06985AF82000A8424A
:1035B000E7DA761E21D40598059938F9100006FB44
:1035C000040029F8110006985AF82050002D14DB49
:1035D0000698069938F9100005FB040029F8110037
:1035E000114803214C3000F067FD00F023F8DBF8B0
:1035F0000000B0B16D1E002DEADA761E002EAEDAA4
:103600007F1C04985AF82000B842BFF639AF032156
:1036100007A800F051FD0020ADE7FFE74FF0FF30B5
:10362000A9E74FF0FF30A6E7988F00209C420008E2
:103630000000002000B5ADF6CC3D03211848FDF791
:10364000C0FA1848FFF74AFB012202214FF09040D0
:10365000FEF704FC1248B0F8C81B0229FBD13C203D
:103660008DF804001048C16CCDF80510016DCDF83F
:103670000910406DCDF80D0040F6B83208490DF143
:103680001100FCF7E4FD3E208DF8C90B40F6C63270
:1036900001A90648FDF74AF90DF6CC3D002000BD12
:1036A0006803002088000020988F0020340F00203D
:1036B000FEE700002DE9F0418EB00A219FED2A0AB5
:1036C000DFED2A0A2A480190012205920290022386
:1036D00006930390042607960490082708974FF056
:1036E0000008CDF834800C920B918DED090ACDEDD8
:1036F0000A0A01A91F48FDF765F91F4C01940596B8
:103700001E4D0295069703951020079004952020E2
:103710000890CDF83480174801A95830FDF752F9C8
:10372000019405970295402006900395802007900C
:103730001348049008960F4801A9B030FDF742F9EC
:103740000194300205900294400106900394801188
:1037500007900494C0000890064801A95838FDF766
:1037600031F90EB0BDE8F0810000B43D1CC7B13F97
:10377000000800486002002000180048000C0048C3
:10378000001000487047704770B505462868C1684A
:10379000490613D44FF0FF31C160FEF765FB0446C4
:1037A0004FF47A7606E0FEF75FFB001BB04201D9CA
:1037B000032070BD2868C0684006F4D5002070BDA5
:1037C00070472030818DC26909049161C18D026A00
:1037D00009049161018E426A09049161418E826AF5
:1037E0000904916150F82019082945D2DFE801F059
:1037F000040E141E242E343EC26BB0F84C1091619E
:10380000026CB0F84E10916100F046BD026CB0F849
:103810004E10916100F040BD026CB0F84E10916105
:10382000426CB0F85010916100F036BD426CB0F8B7
:103830005010916100F030BD426CB0F850109161B1
:10384000826CB0F85210916100F026BD826CB0F825
:103850005210916100F020BDC26BB0F84C10916124
:10386000826CB0F85210916100F016BDC26BB0F8D6
:103870004C10916100F010BD7047007800F001001D
:10388000704710B5044610461946FCF704FD00EEDB
:10389000900A94ED0D1A80EE810A10EE100AFCF7E2
:1038A00010FD02462046BDE810400B4600F017B858
:1038B00010B5044610461946FCF7EDFC00EE900AE0
:1038C00094ED0E1A80EE810A10EE100AFCF7F9FC56
:1038D00002462046BDE810400B46FFF7D2BF30B489
:1038E00014461D46D0E906130A1B63EB05030024AA
:1038F0002146A41A994102DA30BC00F019B81946E1
:103900000023524230BC63EB010300F066B8016A49
:10391000082901D100210162016A491C0162D0E934
:103920000612491C42F10002C0E90612FFF749BF26
:1039300010B5D0E90A41A41A61EB0301C0E90A41BC
:103940001A4303D0016841F00101016010BD70B558
:103950000346D3E90645D3E90A0180EA040281EA75
:103960000506324306D0001BA9411DDA184600F0B7
:1039700023F81CE01433188F996A00048861588F6B
:10398000D96A00048861988F196B00048861D88F08
:10399000596B0004886153F8140C20F0010043F8BF
:1039A000140C4FF0FF3070BD1846FFF7B0FF1846FB
:1039B000FFF707FF002070BD016A002901D108212F
:1039C0000162016A491E0162D0E90612491E42F1F4
:1039D000FF32C0E90612FFF7F4BE10B5D0E90A4184
:1039E000A4185941C0E90A411A4303D0016841F0C3
:1039F0000101016010BDFEF73DBA000030B5A5B071
:103A000028211BA8FCF73CFC142116A8FCF738FC65
:103A100058216846FCF734FC09201B904FF4A02085
:103A20001C9001201E9020900225219500042290D8
:103A30004FF4E0102390002424941BA8FEF73EFDD1
:103A400008B1FDF7BDF80F201690179518944FF4A4
:103A5000806019901A94022116A8FEF7E9FB08B1BC
:103A6000FDF7AEF809480090029404944FF480707A
:103A70000A9040000190129413946846FEF78CFA65
:103A8000002801D0FDF79CF825B030BD85008101EC
:103A90000548016841F47001016003494FF000607E
:103AA000803908607047000088ED00E010B50A48D2
:103AB000016821F0010101600848FFF748FF07484D
:103AC0005830FFF744FF0548B030FFF740FFBDE82E
:103AD00010400348FFF73BBF104801400802002098
:103AE0001003002070B52148FFF724F94FF09045EE
:103AF000002202212846FEF7B1F91D48FDF7DAFB46
:103B000064211B48FDF76CFB194C2068D0F880003D
:103B100081B21848FDF76BF82068D0F8840081B2B4
:103B20001448FDF764F82068D0F8880081B2114885
:103B3000FDF75DF80446601C02D10C48FFF7E4F87D
:103B4000012C12D1094C2068016821F001010160AB
:103B50006420FEF799F8012202212846FEF77EF93B
:103B60002068016841F00101016070BD88000020FB
:103B700018000020680300202DE9F04F0268274E4E
:103B8000DFF89C90DFF89CA0274B284C4FF0804B2F
:103B9000B04209D0584507D0484505D0504503D01C
:103BA000984201D0A04203D122F070054A682A430E
:103BB0001F4FDFF880C0DFF88080B0420FD058453B
:103BC0000DD048450BD0504509D0984207D0B84297
:103BD00005D0604503D0404501D0A04203D122F476
:103BE0004075CA682A434D6922F080022A43026068
:103BF0008A68C2620A688262B04209D0984207D0DD
:103C0000B84205D0604503D0404501D0A04201D163
:103C10000969016301214161BDE8F08F002C014079
:103C20000004004000080040003401400050014002
:103C300000400140004401400048014090F8241039
:103C4000C90706D001684A68836A22F400321A4321
:103C50004A6090F82410890706D501684A68C36A4B
:103C600022F480321A434A6090F82410490706D59E
:103C700001684A68036B22F480221A434A6090F874
:103C80002410090706D501684A68436B22F40042F4
:103C90001A434A6090F82410C90606D501688A685C
:103CA000836B22F480521A438A6090F824108906AC
:103CB00006D501688A68C36B22F400521A438A60F1
:103CC00090F82410490611D501684A68036C22F463
:103CD00080121A434A60016CB1F5801F06D1016859
:103CE0004A68436C22F4C0021A434A6090F82410D8
:103CF000090606D501684A68806C22F40022024356
:103D00004A607047F8B504460026E667FEF7ACF84F
:103D10000746206800686FF07E4500070AD53B46DD
:103D200000224FF400112046009500F063F908B11D
:103D30000320F8BD2068006840070AD53B460022F2
:103D40004FF480012046009500F054F908B103209B
:103D5000F8BD20206067A06784F870600020F8BD7F
:103D60002DE9F041044600200025A2682169E3699D
:103D70000A43616919430A4321680B68944E334032
:103D800013430B6021684A68E36822F440521A43E7
:103D90004A60A169226A0A4321688B6823F4306370
:103DA00013438B608B4E21688B4A4FF48033B142B2
:103DB00013D1116B11F0030107D0012909D0022999
:103DC00009D0032903D010216FE001216DE0022109
:103DD0006BE0042169E0082167E0804EB14215D113
:103DE000116B11F4403109D099420BD0B1F5003F6D
:103DF0000AD0B1F5403F03D0102156E0002154E035
:103E0000022152E0042150E008214EE0744EB142FC
:103E100016D1116B11F440210AD0B1F5802F0BD0CF
:103E2000B1F5002F0AD0B1F5402F03D010213CE0AE
:103E300000213AE0022138E0042136E0082134E094
:103E4000684EB14216D1116B11F440110AD0B1F590
:103E5000801F0BD0B1F5001F0AD0B1F5401F03D071
:103E6000102122E0002120E002211EE004211CE0BC
:103E700008211AE05C4EB14216D1116B11F44001D9
:103E80000AD0B1F5800F0BD0B1F5000F0AD0B1F513
:103E9000400F03D0102108E0002106E0022104E0D9
:103EA000042102E0082100E01021E7694FF40042FC
:103EB0004FF6EF76974245D1092933D2DFE801F07A
:103EC000050F1932213232322B00FEF793FA4100EE
:103ED000606801EB5001B1FBF0F080B223E0FEF727
:103EE0009FFA4100606801EB5001B1FBF0F080B235
:103EF00019E03E49606801EB5001B1FBF0F080B27F
:103F000011E0FEF7A3FA4100606801EB5001B1FB3C
:103F1000F0F080B207E0606803EB5001B1FBF0F015
:103F200080B200E00125A0F11001B14208D84FF69F
:103F3000F0710140C0F3420001432068C16040E0DD
:103F400001253EE0092933D2DFE801F0050F1932DF
:103F5000213232322B00FEF74DFA0146606801EB48
:103F60005001B1FBF0F080B223E0FEF759FA0146B0
:103F7000606801EB5001B1FBF0F080B219E01C4920
:103F8000606801EB5001B1FBF0F080B211E0FEF788
:103F90005DFA0146606801EB5001B1FBF0F080B2C0
:103FA00007E0606802EB5001B1FBF0F080B200E086
:103FB0000125A0F11001B14202D82168C86000E0DB
:103FC00001250020206660662846BDE8F0810000DB
:103FD000F369FFEF00380140001002400044004048
:103FE00000480040004C0040005000400024F40015
:103FF00000127A002DE9F0470446089D0E46174648
:1040000098464FF0000A4FF020093BE0681C39D079
:10401000FDF72AFFA0EB0800A84221D805B32068CD
:10402000016849072ED5C069C04300052AD421681C
:104030004FF4006008622068016821F4D0710160CB
:104040002068816821F001018160C4F87490C4F88F
:104050007890C4F87C9084F870A00320BDE8F087C5
:104060002068016821F4D07101602068816821F026
:1040700001018160C4F87490C4F8789084F870A04D
:104080000320EBE72068C06936EA000004D0002076
:10409000B842BBD00020E1E70120F9E710B50121CB
:1040A0000348FCF7DCFBBDE810400148FCF757BCB7
:1040B000340F0020FEE700002DE9F04106460D46D2
:1040C00000F066F8042D00DD042500241D4F0BE0F0
:1040D00036F9142004EB440000EBC400D31707EBBF
:1040E000C000FFF7E5FB641CAC42F1DB1648FEF7AD
:1040F000F5FDDFF8508008F1580508F1B00708F524
:1041000084781048FFF7B9FB04462846FFF7B5FB53
:1041100004433846FFF7B1FB04434046FFF7ADFBCD
:1041200000B101200443ECD10748FEF7EDFD07483C
:104130003168C16471680165B16841650020BDE8FE
:10414000F081000008020020C8000020988F0020A5
:104150000907090E002804DB00F1E02080F80014B4
:10416000704700F00F0000F1E02080F8141D704748
:1041700002E008C8121F08C1002AFAD17047704730
:10418000002001E001C1121F002AFBD1704700008E
:1041900000B585B003AA04A92348FCF751FB002809
:1041A00020D104980178D1291ED001231F4AD22999
:1041B00021D0D32935D0D42914D1401C1360B0F9B3
:1041C0000A20B0F90C10B0F90830CDE900320291A4
:1041D000B0F90630B0F90420B0F90210B0F90000CF
:1041E000FCF740FC05B000BD0421401CFFF764FF54
:1041F000FFF720FAF6E7401C1360B0F90C20B0F985
:104200000A30B0F90810CDE901320091B0F906305A
:10421000B0F90420B0F90210B0F90000FFF7F8F887
:10422000E0E700201060DDE7340F002000000020F0
:10423000FDF728FEFFF7E2FBFEF778FFFEF760FFD1
:10424000FFF750F8FFF7BEF8FEF7D4FEFFF79CF833
:10425000FFF762F8FFF77CF8FFF72CFA00210B4814
:10426000FCF7F5FC0A4901F6AC50FCF7DDFA094809
:1042700001680A6842F00D020A600068016841F0B6
:1042800020010160FFF784FFFCE700001800002018
:1042900088010020CC8F0020704700000200000041
:1042A000000000000100000000000000010000000C
:1042B0000200000002030405060708090A0B0C0DA2
:1042C0000E0F10100102030405060708090A0B0C63
:1042D0000D0E0F100000000000000000010203049A
:1042E0000607080900000000010203040C4300084F
:1042F0000000002014000000704100082043000866
:104300001400002024B000008041000800000000DC
:1043100001000000100000000000000000127A0000
:040000050800019559
:00000001FF
