:020000040800F2
:10000000A0940020A9010008612C00080128000824
:100010008D2B00089D040008E93400080000000052
:100020000000000000000000000000009D2C0008FF
:10003000590A000800000000632C0008972E0008F1
:10004000C3010008C3010008C3010008C301000880
:10005000C3010008C3010008C3010008C301000870
:10006000C3010008C3010008C3010008C301000860
:10007000C3010008C3010008C3010008C301000850
:10008000C3010008C3010008C3010008C301000840
:10009000C3010008C3010008C3010008C301000830
:1000A000C30100084D2F0008C3010008C301000868
:1000B000C3010008C3010008C3010008C301000810
:1000C000C3010008C3010008C3010008C301000800
:1000D000C3010008C3010008C3010008D1340008AF
:1000E000C3010008C3010008C3010008C3010008E0
:1000F000C3010008C3010008C3010008C3010008D0
:10010000C30100080000000000000000C301000857
:10011000C3010008C3010008C3010008C3010008AF
:10012000C3010008C3010008C3010008C30100089F
:10013000C3010008C3010008000000000000000027
:10014000C3010008C3010008C3010008000000004B
:10015000000000000000000000000000000000009F
:10016000C3010008C3010008C3010008C30100085F
:10017000C3010008C3010008C3010008C30100084F
:10018000C3010008C30100080000000000000000D7
:10019000C3010008DFF80CD000F0FAF8004800476F
:1001A00069350008A09400200648804706480047AB
:1001B000FEE7FEE7FEE7FEE7FEE7FEE7FEE7FEE717
:1001C000FEE7FEE7312F0008950100082DE9F05FFA
:1001D0000546002092469B468846064681464024B6
:1001E0001BE0284641464746224600F020F8534689
:1001F0005A46C01A914110D311461846224600F0C3
:1002000081F82D1A67EB01084F4622460120002194
:1002100000F078F817EB00094E41201EA4F101040C
:10022000DFDC484631462A464346BDE8F09F202A97
:1002300004DB203A21FA02F00021704721FA02F390
:10024000D040C2F12002914008431946704740EA6D
:1002500001039B0703D009E008C9121F08C0042A44
:10026000FAD203E011F8013B00F8013B521EF9D22B
:100270007047D2B201E000F8012B491EFBD2704753
:100280000022F6E710B513460A4604461946FFF762
:10029000F0FF204610BDF0B4CA17CB0F50405140BC
:1002A000C61841F100054FEAC372314628004FF0ED
:1002B000960303D0B623F0BC00F03CB830460021D2
:1002C000F9E710B500F0004420F00040C20DC0F383
:1002D000160040F400007F2A02DA0020014610BD1B
:1002E0000021962A03DCC2F19602D04002E0963A41
:1002F00000F008F8002CF2D00023D0EB030063EBF1
:10030000010110BD202A04DB203A00FA02F100208E
:1003100070479140C2F1200320FA03F31943904043
:1003200070470029A8BF7047401C490008BF20F053
:100330000100704710B4B0FA80FC00FA0CF050EAEB
:10034000010404BF10BC704749B1CCF1200421FA6C
:1003500004F411FA0CF118BF012121430843A3EB67
:100360000C01CB1D4FEA00614FEA102042BF002074
:1003700010BC704700EBC35010440029A4BF10BC50
:100380007047401C490008BF20F0010010BC7047B6
:10039000064C074D06E0E06840F0010394E80700D2
:1003A00098471034AC42F6D3FFF7F8FE2436000825
:1003B0004436000870B504462068816801F00301E6
:1003C00001292FD10168C9072CD0816801F00D01E6
:1003D000012909D0206C40F010002064606C40F0CE
:1003E00001006064012070BD816841F002018160FC
:1003F00021680320086001F069F905460EE001F06C
:1004000065F9401B022809D9206C40F010002064D7
:10041000606C40F001006064012070BD206880685D
:10042000C007ECD1002070BD70B50446206881681B
:1004300001F00301012902D10168C90729D18168AE
:10044000154A114209D0206C40F010002064606C05
:1004500040F001006064012070BD816841F001013D
:10046000816001F033F905460EE001F02FF9401BE1
:10047000022809D9206C40F010002064606C40F024
:1004800001006064012070BD20680068C043C0079F
:10049000EBD1002070BD00003F000080FEE730B5CA
:1004A00000F58043D3F8B044002C29D0D3F8A454ED
:1004B000D3F8AC44AC4204D10020C3F8B004801E91
:1004C00030BD00EB840404F5804464680C60D3F80C
:1004D000AC1400EB810000F58040D0F804031060FC
:1004E000D3F8AC04411C602901D2401C00E05F3805
:1004F00003F2AC4318605868401E5860002030BDBD
:100500004FF0FF3030BD3CB500F58043D3F8B02448
:10051000002A2AD093F8A024002582B903F294433C
:100520009A6900EB820202F5804254681C60D2F89E
:1005300004239A605D6001221A73A3F2944303F2CC
:1005400094435A68541C5C601C68A25C0A70D3E92E
:100550000112A3F29443914205D383F8A0546A4652
:1005600001A9FFF79CFF00203CBD4FF0FF303CBDD0
:1005700010B500F58043D3F8A44400EB840404F5DF
:1005800080446160D3F8A41400EB810000F5804042
:10059000C0F80423D3F8A404411C602901D2401CF4
:1005A00000E05F3803F2A4431860D868401CD860AC
:1005B000002010BD00B500F5804101F28441002209
:1005C0000A738A680968FFF7D3FF002000BD30B5C1
:1005D00000F580424FF48045D2F8A83400240B4443
:1005E000AB4201D3C2F8A84402F28442801C536A91
:1005F000184410609160546001241473A2F2844284
:100600005C18AC4202D3A1F580415C18C2F8A84442
:1006100030BD10B500F5804000F5916318CB5A1C31
:10062000A34206D2C0F88824D0F88404C154002024
:1006300010BDC0F888244FF0FF3010BD00F5804099
:10064000002180F89014C0F888140020704700F54D
:10065000804000F5916003C8081A704700F580409B
:10066000D0F8B004704702464FF0FF3040F201234B
:10067000002911D0502A73D073DC202A72D063DC99
:10068000052A70D057DC012A6ED0022A6DD0032AC9
:100690006CD0042A6BD1A4E0932A3CD016DC422A09
:1006A00031D009DC302A28D0312A28D0402A28D05D
:1006B000412A00D101207047512A26D0902A26D005
:1006C000912A26D0922AF6D118467047F02A2AD0CD
:1006D00009DCAD2A21D0B02A21D0B12A21D0C02AEC
:1006E000F3D102207047F12A1FD0F22A1FD0F32A3B
:1006F0001FD0F42AF6D11846704701207047012018
:1007000070470120704702207047812070471846CB
:1007100070471846704711207047892070470320A2
:10072000704719207047184670471846704718469A
:10073000704718467047112A57D0122A57D0132AEB
:1007400057D0142A45D156E0312A60D010DC212A36
:1007500055D0222A55D0232A55D0302A39D154E0F9
:100760005DE00CE049E03EE035E036E037E030E0C7
:10077000402A4ED0412A4ED0422A2AD14DE0AD2AFD
:1007800061D014DC912A54D008DC512A49D0802A47
:1007900049D0832A49D0902A1BD148E0922A4AD0D6
:1007A000932A4AD0AB2A4AD0AC2A12D149E0F12A86
:1007B00053D008DCB02A48D0B12A48D0D12A48D03A
:1007C000F02A06D147E0F22A49D0F32A49D0F42A88
:1007D00049D00120704718467047184670471846A0
:1007E00070470120704701207047022070470520A4
:1007F000704703207047062070471520704715206A
:100800007047192070471920704701207047012058
:100810007047012070470120704702207047012077
:100820007047012070470120704702207047012067
:100830007047012070470120704702207047022056
:1008400070470220704789207047032070471920A5
:1008500070470D2070471846704718467047184675
:100860007047184670471846704700B5024608465C
:1008700000F0CCF802F50042C2F86C190868C2F822
:10088000680900BD44F2B4431844FFF708BE44F2BF
:10089000B4410844FFF78EBE44F2B4421044FFF75F
:1008A000B8BE2DE9F04107464FF0FF3544F2B440A1
:1008B00007EB000807F50044D4F8680902689206BF
:1008C00054D5C269920651D5C26922F02002C26194
:1008D000D4F86809808CC6B2D4F8700982053ED578
:1008E00044F2904010F8080060B93046FFF7BBFEB4
:1008F0000146002903DD4046FFF769FE02E040465D
:10090000FFF79CFE4046FFF7A2FE002810DD3146AF
:100910003846FFF7C1FF401C28D14046FFF78EFE46
:10092000D4F8700920F40070C4F8700900251DE0A7
:100930003E2E09D04046FFF781FED4F8700920F41E
:100940000070C4F8700911E03846FFF7A0FFD4F832
:10095000700920F40070C4F87009002506E03C2EF0
:1009600004D140F40070C4F8700900252846BDE8A1
:10097000F081FFF7C8BD70B504460E4615462946FE
:100980002046FFF724FE2A463146FFF760FC20464A
:10099000FFF710FE04F50044D4F86809016841F03F
:1009A00089010160002070BD38B505464FF0FF3069
:1009B00005F50044D4F868190A68120613D5C96908
:1009C000090610D52846FFF749FE002816DD6946BE
:1009D0002846FFF7CEFF38B1D4F86809016821F046
:1009E00080010160002038BDD4F86809C16909069A
:1009F000FCD59DF800100185002038BDD4F86809A9
:100A0000016821F080010160002038BD704714307A
:100A10000A6882624A68C2628A680263CA6842637C
:100A20000A8A02878A8A42870A8B82878A8BC287D0
:100A300091ED080A80ED080A91ED090A80ED090A96
:100A40008A6A40F8102CC96A40F8081C0021C1606D
:100A500000224260826070477047704700F57A70EC
:100A600000224260016002824FF4FA71C16082602C
:100A7000A0F57A70002102E020F81120491CD0F87E
:100A8000F4338B42F8DC7047B0F8F823920702D5B4
:100A90004FF0FF3070470122A0F8F823D0F8E82388
:100AA00091FBF2F2D0F8F0134B1CC0F8F03320F8B1
:100AB000112000F57C7106C9914210DB0021C0F8BD
:100AC000F013D0F8EC13491CC0F8EC13D0F8E8236D
:100AD000914202DB0221A0F8F813012070470020A8
:100AE00070470000F0B594B0002302684FF0A045B5
:100AF0003F4C0026AA4201D1009410E0A24201D14D
:100B000000950CE03B4FDFF8F0C0BA4202D1CDF8BF
:100B100000C004E0624501D1009700E00096009F0C
:100B20009FB190F83C70012F12D0012780F83C70E3
:100B300097687F0753D4009FBF687F074FD4AA42AE
:100B400001D0A24206D12D4A05E0012014B0F0BD2B
:100B50000220FBE72A4A0C6840F61F7524B394680C
:100B600090F8307024F4604444EA47344F683C43C2
:100B700094600468A76807F00307012F02D1246876
:100B8000E40731D1009CA46804F00304012C03D1D4
:100B9000009C2468E40727D10C6889680C4391689D
:100BA000A9430C4394601FE0916821F46041916077
:100BB00001688C6804F00304012C02D10968C9079C
:100BC00012D10099896801F00301012903D100992C
:100BD0000968C90708D19168A943916004E0016CD4
:100BE00041F020010164012380F83C601846ADE724
:100BF00000010050000400500005005000030050A8
:100C0000000700502DE9F04195B000250026009620
:100C100090F83C20012A19D0012780F83C70026826
:100C200093685B077ED44B681F24052B12D2D2F841
:100C300030C003EB43035B009C402CEA040C0C68BF
:100C40009C404CEA040CC2F830C036E0022015B0DB
:100C5000BDE8F0810A2B0FD2D2F834C05B1F03EB42
:100C600043035B009C402CEA040C0C689C404CEA5B
:100C7000040CC2F834C020E00F2B0FD2D2F838C0D9
:100C80000A3B03EB43035B009C402CEA040C0C681A
:100C90009C404CEA040CC2F838C00EE0D2F83CC0CC
:100CA0000F3B03EB43035B009C402CEA040C0C68F5
:100CB0009C404CEA040CC2F83CC0026893684FF0B8
:100CC000070C13F00C0F63D10B680A2B0FD3946938
:100CD0000A3B03EB43030CFA03F824EA0804D1F8B7
:100CE000088008FA03F844EA080494610DE05469A6
:100CF00003EB43030CFA03F824EA0804D1F8088054
:100D000008FA03F844EA0804546102684B69D4689D
:100D1000C4F3C1046400A3400C69DFF84882012CCD
:100D20003DD000E015E1022C45D0032C4FD0042C1F
:100D300059D0136E0C7803F0F843B3EB846F03D1F2
:100D4000136E23F0004313660268536E0C7803F0B1
:100D5000F843B3EB846F03D1536E23F00043536623
:100D60000268936E0C7803F0F843B3EB846F03D101
:100D7000936E23F0004393660268D36E0C7803F001
:100D8000F843B3EB846F03D1D36E23F00043D366F3
:100D90000268936803F00303012B33D12FE0146E34
:100DA00004EA080491F8008043EA88631C4344F095
:100DB00000431366ECE7546E04EA080491F80080DF
:100DC00043EA88631C4344F000435366E0E7946EB3
:100DD00004EA080491F8008043EA88631C4344F065
:100DE00000439366D4E7D46E04EA080491F80080C7
:100DF00043EA88631C4344F00043D366C8E71368A2
:100E0000DB077CD1CB68012B06D052F8B03F0C78C1
:100E1000A740BB43136023E052F8B03F0C78A740D3
:100E20003B4313600A680A2A0DD303689C69093A98
:100E300002EB42020CFA02FC8F6824EA0C04974091
:100E40003C439C610CE003685C69521C02EB42026B
:100E50000CFA02FC8F6824EA0C0497403C435C6166
:100E600003684FF0A044404FA34201D0BB4201D1E0
:100E70003E4A00E03E4A0968102904D1D2F808C071
:100E80005FEA0C2C0DD5112904D1D2F808C05FEA15
:100E9000CC1C06D5122961D1D2F808C05FEA4C2CCF
:100EA0005CD4A34201D1019710E0BB4201D101946F
:100EB0000CE0304FDFF8C0C0BB4202D1CDF804C017
:100EC00004E0634501D1019700E001969F6807F0B7
:100ED0000307012F02D11F68FF070BD1019F7FB1CC
:100EE000019FBF6807F00307012F09D1019F3F68E9
:100EF000FF0705D0016C41F02001016401252DE0C0
:100F0000102916D1A34214D1916841F400019160D7
:100F10001A491B4A0968B1FBF2F101EB8101490052
:100F2000009102E00099491E009100990029F9D131
:100F300014E0112906D1A34204D1916841F08071D7
:100F400091600BE0122909D1916841F48001916010
:100F500004E0016C41F020010164012580F83C604F
:100F6000284674E600F0FF830001005000030050A3
:100F70000007005000040050000500500C00002045
:100F800040420F000068006C704700002DE9F041FE
:100F900096B004460025002700260196002C05D0B7
:100FA000206CC0064CD4206C20B137E0012016B074
:100FB000BDE8F0816664E664A66484F83C6020467F
:100FC00000F028F920688068C00027D42046FFF789
:100FD000F1F90546206CC00620D4FDB9206C20F440
:100FE000885040F0020020642068816821F0405160
:100FF00081602068816841F0805181607D487E4930
:101000000068B0FBF1F000EB80004000019002E0CE
:101010000198401E019001980028F9D1206881684C
:10102000C90002D5806880000AD5206C20F002003B
:1010300040F010002064606C40F001006064012505
:10104000206CC00673D4002D71D1206881684907D7
:101050006DD4216C21F4807141F0020121644FF0C4
:10106000A048664A404501D0904201D1644900E061
:101070006449654BDFF894C1404501D102920EE00E
:10108000904202D1CDF8088009E0604501D1029379
:1010900005E0984202D1CDF808C000E002968268CF
:1010A00002F00302012A02D10068C00711D10298A0
:1010B00048B10298806800F00300012803D102982B
:1010C0000068C00705D18868626820F4403010438A
:1010D0008860D4E902010143606B012802D04FF41B
:1010E000805200E00022607E42EA403211433943E0
:1010F00094F82020012A0AD1D0B1206C20F00200FF
:1011000040F020002064606C40F001006064A06A40
:10111000012836D02268624501D09A422CD14FF482
:1011200030734FF4E072984209D1104626E058E03F
:10113000A08C401E41EA404040F48031E7E74FF484
:101140008077B84201D1184618E0904201D1384664
:1011500014E0B0F58A5F06D0B0F5845F06D0B0F534
:10116000865F06D00AE04FF4707007E04FF4A0707D
:1011700004E04FF4C07001E020F480500843E16ABD
:1011800001432068826812F00C0F0BD1C26844F250
:1011900002039A43C260207E94F83020800340EA24
:1011A000420001432068C268194B1A400A43C260DA
:1011B000206901280CD02068016B21F00F01016328
:1011C0006664206C20F0020040F0010020640FE013
:1011D0002068016BE26921F00F01521E1143016387
:1011E000EEE7206C20F0020040F0100020640125A2
:1011F0002846DCE60C00002040420F0000010050B1
:10120000000300500007005000050050000400508B
:1012100007C0F0FF10B586B00446142101A8FFF7FF
:101220002FF82068B0F1A04F1BD10F48416941F061
:1012300080514161416901F080510091416941F45F
:1012400000314161406900F40030009001200190BC
:10125000032002900020039001A94FF0904000F07D
:1012600057F906B010BD0000001002402DE9F0470C
:1012700004460D466169454B20684FF000084FF069
:10128000A042082905D0904201D0984203D140499C
:1012900002E008261CE03F498E68F6060CD08968FB
:1012A00011F4404F13D0206C40F02000206484F8EB
:1012B0003C800120BDE8F087C168C90707D0206CD9
:1012C00040F02000206484F83C800120F2E70C26E6
:1012D000904201D0984204D1D2F8081301F01F01C6
:1012E00004E02C490831096801F01F0121B1904246
:1012F00002D02949884201D1C76803E0984200D052
:101300000A46D76800F0E2F9814610E0681C0ED06A
:101310002DB100F0DBF9A0EB0900A84207D9206C41
:1013200040F00400206484F83C800320C2E7206879
:1013300000683042EAD0206C40F4007020642068DD
:10134000C16811F4406F1BD1B90419D401680907B1
:1013500016D5816849070BD4216C21F48071216472
:10136000216CC9040CD4216C41F00101216407E017
:10137000216C41F020012164616C41F00101616444
:10138000790400D40660002094E7000000010050BA
:101390000003005000070050000400502DE9F04108
:1013A00004462068806840077AD494F83C000128FD
:1013B0000CD0012084F83C002046FFF735F80146A8
:1013C0004FF0000C29B184F83CC087E00220BDE852
:1013D000F081206C40F60162904340F480702064FC
:1013E00020684FF0A0463E4A3E4DB04201D09042A8
:1013F00004D1D6F8083303F01F0302E02B6803F092
:101400001F03394F1BB1B04201D0B8420DD1236C3C
:1014100023F480132364C3689B011CD5236C23F43D
:10142000005343F48053236415E0236C43F480138A
:101430002364904203D1F36803F0007304E02A4B65
:101440000C331B6803F000732BB1236C23F400539F
:1014500043F480532364236CDB0404D5636C23F0D2
:101460000603636401E0C4F844C084F83CC01C2354
:1014700003602068B04201D0904204D1D6F808330E
:1014800003F01F0302E02B6803F01F0303B3B04215
:1014900001D0904205D1D6F8083303F01F0303E0D2
:1014A0001BE02B6803F01F03052B11D0B04201D0C5
:1014B000904204D1D6F8082302F01F0202E02A6805
:1014C00002F01F02092A03D0B04201D0B84205D170
:1014D000826842F00402826000E00221084676E75A
:1014E00000010050080700500004005070B5044689
:1014F00000F0ECF80546601C02D004480078044473
:1015000000F0E4F8401BA042FAD370BD00000020B8
:101510002DE9F84F0022DFF88481DFF880A14FF039
:10152000010E4FF00F0C08F104090AF10C0AAEE0AD
:101530000EFA02F63340002B70D04C68022C01D01A
:10154000122C11D1D40800EB84073D6A5407E40E35
:101550000CFA04FB25EA0B05D1F810B00BFA04FBDA
:101560004BEA050BC7F820B0076854000325A540D7
:10157000AF4391F804B00BF0030B0BFA04FB4BEAFA
:10158000070BC0F800B04F68012F05D0022F03D021
:10159000112F01D0122F11D18768AF43D1F80CB0B1
:1015A0000BFA04FB4BEA070BC0F808B04768B743D7
:1015B0000E79C6F3001696403E434660C668AE43B9
:1015C0008D68A5403543C5604C68E4005ED5344C59
:1015D000A56945F00105A561A46904F00104009422
:1015E000304C22F003052E19B7689407250F0CFA2A
:1015F00005F4A743B0F1904F04D02B4CA04203D187
:1016000001241CE000241AE0284CA04201D102244D
:1016100015E0274CA04202D1032410E036E0254C0F
:10162000A04201D104240AE0234CA04201D10524A8
:1016300005E0224CA04201D1062400E00724AC4082
:101640003C43B460D8F800409C434D68ED0300D59E
:101650001C43C8F80040D9F800409C434D68AD03D6
:1016600000D51C43C9F800400C4D08352C689C433C
:101670004E68F60200D51C432C60DAF800409C430B
:101680004D68AD0200D51C43CAF80040521C0B68DF
:1016900033FA02F47FF44CAFBDE8F88F0004014048
:1016A000001002400000014000040048000800480B
:1016B000000C0048001000480014004800180048C2
:1016C000002A01D0816170478162704701488068BB
:1016D0007047000000000020024881680278114431
:1016E000816070470000002010B50748016841F094
:1016F00010010160032000F06FF8002000F006F8F0
:1017000000F026F8002010BD0020024070B504460D
:101710000D4D4FF47A712878B1FBF0F00B49096850
:10172000B1FBF0F000F0A4FE08B1012070BD102C58
:1017300007D200222146501E00F02EF86C600020D7
:1017400070BD012070BD0000000000200C000020D2
:1017500008B50948816941F001018161816901F0A1
:1017600001010091C16941F08051C161C06900F07F
:101770008050009008BD000000100240002809DBE6
:1017800000F01F02012191404009800000F1E0209B
:10179000C0F8001170470000F0B40D460D4B1B68F7
:1017A000C3F30223C3F10704042C00D90424191D38
:1017B000072901D2002300E0DB1E012606FA04F10E
:1017C000491E294099409E40761E16403143F0BC88
:1017D00001F0AABE0CED00E000F00701054A106818
:1017E0004FF6FF03184040EA012003490843106008
:1017F000704700000CED00E00000FA052DE9F84FFD
:101800000446A14D2068C00370D50026E869C000D9
:1018100008D4E86940F08050E861E86900F0805041
:1018200000900126994F3868C00513D4386840F4F9
:1018300080703860FFF74AFF804608E0FFF746FFF8
:10184000A0EB0800642802D90320BDE8F88F3868AF
:10185000C005F3D5286A00F4407078B3A18801F47C
:10186000407181424DD0286A20F440704FF480319D
:1018700091FAA1F2B2FA82F29300854A4FF0010880
:101880001344C3F8008491FAA1F1B1FA81F102EB9B
:1018900081010023C1F800342862C00731D0FFF76E
:1018A00015FF074641F2883A4FF0020907E0FFF7BB
:1018B0000DFFC01B504502D90320C6E721E099FA6D
:1018C000A9F0B0FA80F040F040004146B8EB501F5C
:1018D00001D128680CE099FAA9F0B0FA80F040F044
:1018E0004000B9EB501F02D1286A01E015E0686A98
:1018F00099FAA9F2B2FA82F202F01F02914008426C
:10190000D5D0286A616820F4407008432862012E0F
:1019100003D1E86920F08050E8612078C00705D045
:10192000286BA16820F00300084328632078800713
:1019300005D5286BE16820F44030084328632078FF
:10194000400705D5286B216920F44020084328630F
:101950002078800605D5286BE16920F01000084347
:1019600028632068800305D56868616D20F48000D5
:10197000084368602078400605D5286B216A20F06E
:101980002000084328632068400305D5286B616A5E
:1019900020F04000084328632078000705D5286B15
:1019A000616920F44010084328632078C00605D5FB
:1019B000286BA16920F44000084328632088800533
:1019C00005D56868216B20F4000008436860207822
:1019D000000605D5E86AA16A20F4F8700843E862B9
:1019E0002088C00505D5E86AE16A20F478500843EC
:1019F000E8622088C00405D5286B616B20F48070F4
:101A0000084328632088800405D5286B216C20F4C6
:101A10000070084328632068C00205D5286BA16BBD
:101A200020F08070084328632068800205D5286B69
:101A3000E16B20F00070084328632068400205D560
:101A4000286B616C20F480600843286320680002E2
:101A500005D5286BA16C20F400600843286320683A
:101A6000C00105D5286BE16C20F4005008432863C1
:101A70002068800105D5286B216D20F400400843C3
:101A800028630020E1E600000010024000700040E2
:101A9000000042422DE9F04704460D46002C17D0C5
:101AA000DFF89481D8F8000000F00700A84211D2B6
:101AB000D8F8000020F007002843C8F80000D8F844
:101AC000000000F00700A84204D00120BDE8F08724
:101AD0000120FBE72078594E800705D57068A16882
:101AE00020F0F000084370602078C00765D060687F
:101AF000012201280CD0022822D0022393FAA3F15C
:101B0000B1FA81F141F02001490931D0316830E06A
:101B10004FF4003393FAA3F1B1FA81F141F02001BF
:101B2000490901D0316800E0716A93FAA3F3B3FA6E
:101B300083F303F01F039A40114225D10120C5E72A
:101B40004FF0007393FAA3F1B1FA81F141F0200153
:101B5000490901D0316800E0716A93FAA3F3B3FA3E
:101B600083F303F01F039A4011420DD10120ADE72A
:101B7000716A93FAA3F3B3FA83F303F01F039A4055
:101B8000114201D10120A1E7716821F00301014355
:101B90007160FFF79BFD074641F2883906E0FFF7C9
:101BA00095FDC01B484501D903208FE77068616827
:101BB00000F00C00B0EB810FF1D1D8F8000000F07C
:101BC0000700A8420ED9D8F8000020F007002843EB
:101BD000C8F80000D8F8000000F00700A84201D0C3
:101BE000012073E72078400705D57068E16820F48C
:101BF000E060084370602078000706D570682169AE
:101C000020F4605040EAC100706000F051F8716843
:101C1000F02292FAA2F201F0F001B2FA82F2D1407F
:101C2000074A515CC8400749086007480068FFF749
:101C30006DFD00204AE70000002002400010024035
:101C40000A3600080C00002004000020014800684B
:101C5000704700000C00002000B5FFF7F7FF0749B0
:101C600049684FF4E06292FAA2F201F4E061B2FA3C
:101C700082F2D140024A515CC84000BD00100240CF
:101C80001A36000800B5FFF7E1FF074949684FF42D
:101C9000605292FAA2F201F46051B2FA82F2D1409B
:101CA000024A515CC84000BD001002401A360008CC
:101CB00010B5184B5968184801F00C02042A20D0BE
:101CC000082A1ED14FF4701494FAA4F401F470128F
:101CD000B4FA84F4E240114CA45CDA6A0F2393FA5C
:101CE000A3F302F00F02B3FA83F3DA400B4B103385
:101CF0009A5CC90306D500231946FEF767FAA0FBD4
:101D0000040110BD00231946FEF760FAA0FB040190
:101D100010BD00000010024000127A00EA350008F1
:101D20002DE9F84F0446002C11D02078F74EC0075B
:101D30004FF0010578D070686F04C0F3810001286E
:101D400023D07068C0F38100022803D007E001208F
:101D5000BDE8F88F7068C0F3C130022815D0606804
:101D6000B0F5803F2AD070B3B0F5A02F35D03068E1
:101D700020F480303060306820F48020306060686B
:101D8000A0B3FFF7A3FC804639E097FAA7F0B0FABA
:101D900080F040F02000400901D0306800E0706A17
:101DA00097FAA7F1B1FA81F101F01F0105FA01F1EB
:101DB00008425BD06068B8BB0120C9E7306840F4D6
:101DC00080303060DBE7FFE7306820F4803030603F
:101DD000306820F480203060D1E7306840F4802003
:101DE0003060306840F480303060C8E71DE0FFF7B5
:101DF0006DFCA0EB0800642801D90320A8E797FA3E
:101E0000A7F0B0FA80F040F02000400901D030681F
:101E100000E0706A97FAA7F1B1FA81F101F01F01B1
:101E200005FA01F10842E2D020E0FFF74FFC8046BE
:101E300007E0FFF74BFCA0EB0800642801D9032062
:101E400086E797FAA7F0B0FA80F040F0200040094A
:101E500001D0306800E0706A97FAA7F1B1FA81F119
:101E600001F01F0105FA01F10842E2D12078DFF804
:101E7000A08280074FF0000B4FF0020740D570683A
:101E80004FF0F80A10F00C0F15D07068C0F3810005
:101E9000022804D17068C0F3C13001280BD0E0687B
:101EA00078B395FAA5F0B0FA80F048F82050FFF723
:101EB0000DFC81462EE097FAA7F0B0FA80F040F0D2
:101EC0002000400901D0306800E0706A97FAA7F15D
:101ED000B1FA81F101F01F0105FA01F1084204D0C5
:101EE000E068012801D0012032E730689AFAAAF2AE
:101EF0002169B2FA82F220F0F80091400843306084
:101F000050E028E0FFF7E2FBA0EB0900022801D92E
:101F100003201DE797FAA7F0B0FA80F040F0200008
:101F2000400901D0306800E0706A97FAA7F1B1FA71
:101F300081F101F01F0105FA01F10842E2D0306899
:101F40009AFAAAF22169B2FA82F220F0F8009140DE
:101F50000843306026E095FAA5F0B0FA80F048F822
:101F600020B0FFF7B3FB814607E0FFF7AFFBA0EB24
:101F70000900022801D90320EAE697FAA7F0B0FA8F
:101F800080F040F02000400901D0306800E0706A25
:101F900097FAA7F1B1FA81F101F01F0105FA01F1F9
:101FA0000842E2D1207800076DD56069A8B395FAA0
:101FB000A5F0B0FA80F008EB8000C0F88054FFF77D
:101FC00085FB814607E0FFF781FBA0EB09000228B3
:101FD00001D90320BCE697FAA7F0B0FA80F040F0F0
:101FE0006000B5EB501F01D130680BE097FAA7F005
:101FF000B0FA80F040F06000B7EB501F01D1306ABA
:1020000000E0706A97FAA7F1B1FA81F101F01F02BE
:1020100005FA02F10842D6D035E0FFE795FAA5F0BF
:10202000B0FA80F008EB8000C0F880B4FFF74EFBF8
:10203000814607E0FFF74AFBA0EB0900022801D91F
:10204000032085E697FAA7F0B0FA80F040F0600030
:10205000B5EB501F01D130680BE097FAA7F0B0FA4A
:1020600080F040F06000B7EB501F01D1306A00E013
:10207000706A97FAA7F1B1FA81F101F01F0205FA2F
:1020800002F10842D6D1207840076DD54FF0000903
:10209000F069C00009D4F06940F08050F061F06947
:1020A00000F0805000904FF001091A480168C905FE
:1020B00013D4016841F480710160FFF707FB824689
:1020C00007E0FFF703FBA0EB0A00642801D9032017
:1020D0003EE610480068C005F3D5A068012810D07E
:1020E000D0B1052821D0306A20F001003062306A7A
:1020F00020F004003062A068A8B3FFF7E7FA824638
:1021000026E0306A40F001003062F4E7001002403F
:102110000000424200700040306A20F0010030624E
:10212000306A20F004003062E5E7306A40F00400D5
:102130003062306A40F001003062DCE7FFF7C6FA37
:10214000A0EB0A0141F28830814201D90320FFE56A
:1021500097FAA7F0B0FA80F040F04000B5EB501FBE
:1021600003D130680DE017E04CE097FAA7F0B0FA21
:1021700080F040F04000B7EB501F01D1306A00E022
:10218000706A97FAA7F1B1FA81F101F01F0105FA1F
:1021900001F21042D2D02EE0FFF798FA824609E011
:1021A000FFF794FAA0EB0A0141F28830814201D98D
:1021B0000320CDE597FAA7F0B0FA80F040F0400098
:1021C000B5EB501F01D130680BE097FAA7F0B0FAD9
:1021D00080F040F04000B7EB501F01D1306A00E0C2
:1021E000706A97FAA7F1B1FA81F101F01F0105FABF
:1021F00001F21042D4D1B9F1010F03D1F06920F0FE
:102200008050F061A06980B37168C1F38101022937
:1022100073D04FF080794FF00077022809D099FAF7
:10222000A9F0B0FA80F048F820B0FFF74FFA044662
:1022300064E099FAA9F0B0FA80F048F820B0FFF70E
:1022400045FA824607E0FFF741FAA0EB0A000228B0
:1022500001D903207CE597FAA7F0B0FA80F040F0AE
:102260002000400902D0306801E074E0706A97FAFB
:10227000A7F1B1FA81F101F01F0105FA01F108425D
:10228000E1D1F06A616A20F00F000843F062D4E9FE
:1022900007100843716821F476110843706099FAB9
:1022A000A9F0B0FA80F048F82050FFF70FFA044682
:1022B00006E0FFF70BFA001B022801D9032047E5CF
:1022C00097FAA7F0B0FA80F040F02000400901D062
:1022D000316800E0716A97FAA7F0B0FA80F000F078
:1022E0001F0005FA00F00142E3D034E0FFF7EEF9F9
:1022F000001B022802D903202AE515E097FAA7F06F
:10230000B0FA80F040F02000400901D0316800E0D0
:10231000716A97FAA7F0B0FA80F000F01F0005FA92
:1023200000F00142E2D116E0012812D07068F16A93
:10233000E36900F4C0329A4209D1226A00F47010B5
:10234000904204D101F00F00616A884203D001205D
:10235000FEE40120FCE40020FAE4000070B504462D
:10236000002C02D0607F10B106E0012070BD00207B
:102370002077204600F04EF8022060772168CA20BE
:102380004862216853204862204600F06BFCFF251C
:10239000042620B1206845626677012070BD206860
:1023A00081681B4A1140816020688168626811431E
:1023B000D4E904231A43114381602168E06808616D
:1023C00020680169228941EA024101612068C168EF
:1023D00021F08001C16020688068800608D4204612
:1023E00000F02CF820B1206845626677012070BDAE
:1023F0002068016C21F4802101642068016CA269CD
:10240000114301642068456201206077002070BD9F
:10241000BFFF8FFF0068074988420AD10120C1032E
:1024200091FAA1F1044AB1FA81F102EB8101C1F8FC
:1024300000047047002800400000424270B5054685
:102440002868C16821F0A001C160FFF73FF9044688
:102450004FF47A7606E0FFF739F9001BB04201D954
:10246000032070BD2868C0688006F4D5002070BDC8
:1024700010B5401EB0F1807F01D3012010BD4FF098
:10248000E02460610F21601701F04EF80020A06188
:1024900007202061002010BD70477047704710B5BD
:1024A0000446002C03D094F83D0010B107E0012051
:1024B00010BD002084F83C00204600F00DF80220FA
:1024C00084F83D00211D206800F070FD012084F893
:1024D0003D00002010BD000008B500680B4988428F
:1024E00012D10B48816941F400318161806900F4A7
:1024F00000300090002211461920FFF74DF9BDE889
:1025000008401920FFF73AB908BD00000044014017
:10251000001002400168CA6842F00102CA60016806
:102520008868064A1040062806D0B0F5803F03D0E0
:10253000086840F0010008600020704707000100B3
:10254000704770B50446206801694FF00005C94323
:10255000890716D4C168C943890712D4E91E0161ED
:102560000120207720688069800703D02046FFF78C
:10257000E7FF05E0204600F0AAF8204600F0A8F8A2
:10258000257720680169C943490718D4C168C94340
:10259000490714D46FF004010161022020772068FC
:1025A000806910F4407F03D02046FFF7C9FF05E0A3
:1025B000204600F08CF8204600F08AF82577206845
:1025C0000169C943090717D4C168C943090713D46E
:1025D0006FF008010161042020772068C06980073E
:1025E00003D02046FFF7ACFF05E0204600F06FF86F
:1025F000204600F06DF8257720680169C943C906B7
:1026000018D4C168C943C90614D46FF01001016120
:10261000082020772068C06910F4407F03D020464E
:10262000FFF78EFF05E0204600F051F8204600F04D
:102630004FF8257720680169C943C90708D1C168E7
:10264000C943C90704D1891E0161204600F041F841
:1026500020680169C943090609D4C168C94309064C
:1026600005D46FF0800101612046FFF716FF206856
:102670000169C943C90509D4C168C943090605D41C
:102680006FF4807101612046FFF706FF2068016941
:10269000C943490609D4C168C943490605D46FF046
:1026A00040010161204600F015F820680169C94326
:1026B00089060BD4C168C943890607D46FF020018D
:1026C00001612046BDE87040FFF7E8BE70BD70476D
:1026D00070477047704710B50446002C02D0606FF9
:1026E00010B107E0012010BD002084F870002046E2
:1026F00000F028F8242060672068016821F00101BB
:102700000160204600F046FD012818D0606A10B133
:10271000204600F0ADFC2068416821F49041416002
:102720002068816821F02A0181602068016841F0F9
:10273000010101602046BDE8104000F0FDBC012011
:1027400010BD000070B586B00446142101A8FDF745
:1027500097FD264E216800222548022303240725E1
:10276000B1421BD1816941F480418161816901F4E9
:1027700080410091416941F400214161406900F4C8
:10278000002000903020019002930392049405955C
:1027900001A91848FEF7BCFE06B070BD164EB14246
:1027A000FAD1C16941F48021C161C16901F480217C
:1027B0000091416941F480214161406900F4802029
:1027C00000904FF4406001900293039204940595A9
:1027D00001A90A48FEF79CFE002201212720FEF7EE
:1027E000DBFF2720FEF7CAFFD6E7000000380140D4
:1027F0000010024000080048004800400004004863
:10280000FEE7000030B589B00024069407940894D0
:1028100018216846FDF734FD18484FF0A0410160CB
:10282000446084600461447680F82040C4620125DD
:102830008562C460C56180F830400421416104763E
:102840004463FEF7A3FB08B1FEF707F9069406A957
:102850000A48FEF747F908B1FEF7FFF80095019521
:10286000039402940494059469460448FEF7CAF957
:10287000002801D0FEF7F1F809B030BD10000020AB
:102880002DE9F04F87B0142102A8FDF7F9FC634849
:10289000416941F400114161416901F40011019164
:1028A000416941F400214161416901F40021019134
:1028B000416941F480014161416901F48001019164
:1028C000416941F400314161416901F400310191F4
:1028D000416941F480214161416901F48021019104
:1028E000416941F400014161416901F40001019134
:1028F000416941F480114161406900F48010019008
:10290000DFF81C81002244F204014046FEF7D8FEA5
:10291000DFF8109100220F214846FEF7D1FE4FF05C
:10292000904A002202215046FEF7CAFEDFF8F8B0B6
:1029300044F28107002239465846FEF7C1FE0122C3
:10294000D1034046FEF7BCFE002249F24C613748F5
:10295000FEF7B6FE0022F8213548FEF7B1FE04204E
:10296000029001250395002404940326059602A9EC
:102970004046FEF7CDFD680302902E480390049474
:1029800002A94846FEF7C4FD0F2002900395049467
:10299000059602A94846FEF7BBFD0220029003956A
:1029A0000494059402A95046FEF7B2FD02970395E0
:1029B0000494059402A95846FEF7AAFDB0030290BC
:1029C00003950494059402A94046FEF7A1FD49F23F
:1029D0000C60029003950494059602A91348FEF733
:1029E00097FD4020029003950494059402A90F4896
:1029F000FEF78EFD802002900394049402A90B48F8
:102A0000FEF786FDF820029003950494059602A92E
:102A10000748FEF77DFD07B0BDE8F08F00100240CB
:102A20000010004800080048000400480018004852
:102A3000000C00480000111010B50B480949016056
:102A4000002141607F228260FF22C26001614161FA
:102A50008161FFF783FC002803D0BDE81040FDF73B
:102A6000FCBF10BD002800406000002010B50C48DD
:102A70000A490160472141600021816040F2E7324C
:102A8000C260016141618161FFF709FD002803D047
:102A9000BDE81040FDF7E1BF10BD0000004401405B
:102AA0008000002010B50D480B4901604FF4E13162
:102AB000416000218160C16001610C22426181613D
:102AC000C16101624162FFF706FE002803D0BDE844
:102AD0001040FDF7C2BF10BD00380140C00000200B
:102AE00010B511480F4901604FF496414160002133
:102AF0008160C16001610C2242618161C16101623A
:102B0000382141624FF400414163C910816349009B
:102B1000C163FFF7E0FD002803D0BDE81040FDF7DA
:102B20009CBF10BD004800404001002000B5FFB030
:102B300003211348FDF792FF1248FFF7EBFC012237
:102B400002214FF09040FEF7BBFD0D48B0F8F8139E
:102B50000229FBD13C208DF804003E208DF8F901BC
:102B60004FF4FA7206490DF10500FDF770FB4FF4C2
:102B7000FB7201A90448FDF7FEFE7FB0002000BDF6
:102B800020030020800000201C070020FEE700003A
:102B90002DE9F0418EB09FED2A0ADFED2A0A2A487E
:102BA00001900121059102900222069203900426D1
:102BB00007960490082708974FF00008CDF8348056
:102BC0000C910B918DED090ACDED0A0A01A91F4860
:102BD000FDF71DFF1E4C019405961E4D02950697AC
:102BE000039510200790049520200890CDF834809C
:102BF000164801A95830FDF70AFF01940597029580
:102C00004020069003958020079013480490089672
:102C10000E4801A9B030FDF7FAFE0194300205908C
:102C20000294400106900394801107900494C00020
:102C3000089001A90948FDF7EAFE0EB0BDE8F08151
:102C40000000B43DE4380E3E00080048C0010020FA
:102C500000180048000C004800100048C80200207E
:102C60007047704770B505462868C168490613D497
:102C70004FF0FF31C160FEF729FD04464FF47A762C
:102C800006E0FEF723FD001BB04201D9032070BD12
:102C90002868C0684006F4D5002070BD704710B5A4
:102CA0000446206A082854D2DFE800F004101824F3
:102CB0002C38404CE16BB4F84C008861216CB4F8BE
:102CC0004E008861204600F08DFC42E0216CB4F893
:102CD0004E008861204600F085FC3AE0216CB4F893
:102CE0004E008861616CB4F850008861204600F0A5
:102CF00079FC2EE0616CB4F850008861204600F049
:102D000071FC26E0616CB4F850008861A16CB4F8E5
:102D100052008861204600F065FC1AE0A16CB4F80E
:102D200052008861204600F05DFC12E0E16BB4F8CF
:102D30004C008861A16CB4F852008861204600F014
:102D400051FC06E0E16BB4F84C008861204600F0CD
:102D500049FC3C34208A216800048861608A6168EB
:102D600000048861A08AA16800048861E08AE168A3
:102D70000004886110BD10B5044610461946FDF7E1
:102D80008AFA00EE900A94ED0D1A80EE810A10EE98
:102D9000100AFDF796FA02462046BDE810400B46A1
:102DA00000F017B810B5044610461946FDF773FA3F
:102DB00000EE900A94ED0E1A80EE810A10EE100AD1
:102DC000FDF77FFA02462046BDE810400B46FFF7AC
:102DD000D2BFF0B414461D46D0E90616621A65EB60
:102DE000060300242146A41A994102DAF0BC00F03F
:102DF00019B81946F0BC0023524263EB010300F0FE
:102E000036B8016A082901D100210162016A491C12
:102E10000162D0E90612491C42F10002C0E9061223
:102E2000FFF73DBF2DE9F041804616461F460024BE
:102E3000254605E04046FFF7E4FF641C45F1000528
:102E4000A01B75EB0700F5DBBDE8F081016A0029E6
:102E500001D108210162016A491E0162D0E906120E
:102E6000491E42F1FF32C0E90612FFF718BF2DE9F3
:102E7000F041804616461F460024254605E04046A0
:102E8000FFF7E4FF641C45F10005A01B75EB07008C
:102E9000F5DBBDE8F081FEF71FBC000030B5A5B042
:102EA00028211BA8FDF7ECF9142116A8FDF7E8F975
:102EB00058216846FDF7E4F909201B904FF4A02043
:102EC0001C9001201E902090022521950004229044
:102ED0004FF4E0102390002424941BA8FEF720FF59
:102EE00008B1FDF7BAFD0F201690179518944FF40E
:102EF000806019901A94022116A8FEF7CBFD08B144
:102F0000FDF7ABFD09480090029404944FF48070E3
:102F10000A904000019012946846FEF76FFC00286A
:102F200001D0FDF79AFD25B030BD0000850081007D
:102F30000548016841F47001016003494FF00060E9
:102F4000803908607047000088ED00E070B51448D3
:102F5000FFF7F7FA4FF09045002202212846FEF7CE
:102F6000AFFB1048FEF71AFA0A210E48FEF77EF969
:102F70000C48FEF707F881B20B48FDF785FD0446C3
:102F8000601C02D10648FFF7C5FA012C06D128467D
:102F9000BDE8704001220221FEF792BB70BD000027
:102FA0008000002010000020200300202DE9F04FB9
:102FB0000268274EDFF89C90DFF89CA0274B284C36
:102FC0004FF0804BB04209D0584507D0484505D056
:102FD000504503D0984201D0A04203D122F07005A1
:102FE0004A682A431F4FDFF880C0DFF88080B04274
:102FF0000FD058450DD048450BD0504509D09842C8
:1030000007D0B84205D0604503D0404501D0A0426A
:1030100003D122F44075CA682A434D6922F0800228
:103020002A4302608A68C2620A688262B04209D09A
:10303000984207D0B84205D0604503D0404501D042
:10304000A04201D10969016301214161BDE8F08F0E
:10305000002C014000040040000800400034014002
:103060000050014000400140004401400048014040
:1030700090F82410C90706D001684A68836A22F4D0
:1030800000321A434A6090F82410890706D5016877
:103090004A68C36A22F480321A434A6090F82410C6
:1030A000490706D501684A68036B22F480221A4357
:1030B0004A6090F82410090706D501684A68436BF6
:1030C00022F400421A434A6090F82410C90606D53B
:1030D00001688A68836B22F480521A438A6090F8F0
:1030E0002410890606D501688A68C36B22F4005251
:1030F0001A438A6090F82410490611D501684A687D
:10310000036C22F480121A434A60016CB1F5801FEF
:1031100006D101684A68436C22F4C0021A434A602F
:1031200090F82410090606D501684A68806C22F4DC
:10313000002202434A607047F8B504460026E6675D
:10314000FEF7C4FA0746206800686FF07E45000766
:103150000AD53B4600224FF400112046009500F0AE
:1031600063F908B10320F8BD2068006840070AD55C
:103170003B4600224FF480012046009500F054F9B0
:1031800008B10320F8BD20206067A06784F8706054
:103190000020F8BD2DE9F041044600200025A2687A
:1031A0002169E3690A43616919430A4321680B688D
:1031B000944E334013430B6021684A68E36822F45D
:1031C00040521A434A60A169226A0A4321688B6807
:1031D00023F4306313438B608B4E21688B4A4FF48A
:1031E0008033B14213D1116B11F0030107D00129D3
:1031F00009D0022909D0032903D010216FE0012151
:103200006DE002216BE0042169E0082167E0804E57
:10321000B14215D1116B11F4403109D099420BD054
:10322000B1F5003F0AD0B1F5403F03D0102156E080
:10323000002154E0022152E0042150E008214EE038
:10324000744EB14216D1116B11F440210AD0B1F580
:10325000802F0BD0B1F5002F0AD0B1F5402F03D04D
:1032600010213CE000213AE0022138E0042136E060
:10327000082134E0684EB14216D1116B11F44011AF
:103280000AD0B1F5801F0BD0B1F5001F0AD0B1F5FF
:10329000401F03D0102122E0002120E002211EE087
:1032A00004211CE008211AE05C4EB14216D1116BDA
:1032B00011F440010AD0B1F5800F0BD0B1F5000F29
:1032C0000AD0B1F5400F03D0102108E0002106E03C
:1032D000022104E0042102E0082100E01021E76956
:1032E0004FF400424FF6EF76974245D1092933D289
:1032F000DFE801F0050F1932213232322B00FEF7E0
:10330000ABFC4100606801EB5001B1FBF0F080B212
:1033100023E0FEF7B7FC4100606801EB5001B1FB10
:10332000F0F080B219E03E49606801EB5001B1FB5A
:10333000F0F080B211E0FEF7BBFC4100606801EBE9
:103340005001B1FBF0F080B207E0606803EB500180
:10335000B1FBF0F080B200E00125A0F11001B14214
:1033600008D84FF6F0710140C0F3420001432068D5
:10337000C16040E001253EE0092933D2DFE801F0D9
:10338000050F1932213232322B00FEF765FC01465F
:10339000606801EB5001B1FBF0F080B223E0FEF772
:1033A00071FC0146606801EB5001B1FBF0F080B2A6
:1033B00019E01C49606801EB5001B1FBF0F080B2EC
:1033C00011E0FEF775FC0146606801EB5001B1FBAE
:1033D000F0F080B207E0606802EB5001B1FBF0F062
:1033E00080B200E00125A0F11001B14202D82168AD
:1033F000C86000E001250020206660662846BDE820
:10340000F0810000F369FFEF003801400010024036
:103410000044004000480040004C00400050004084
:103420000024F40000127A002DE9F0470446089DBC
:103430000E46174698464FF0000A4FF020093BE031
:10344000681C39D0FEF742F9A0EB0800A84221D849
:1034500005B32068016849072ED5C069C04300053F
:103460002AD421684FF4006008622068016821F4C2
:10347000D07101602068816821F001018160C4F889
:103480007490C4F87890C4F87C9084F870A00320FD
:10349000BDE8F0872068016821F4D07101602068E0
:1034A000816821F001018160C4F87490C4F87890BB
:1034B00084F870A00320EBE72068C06936EA0000BA
:1034C00004D00020B842BBD00020E1E70120F9E79A
:1034D00010B501210348FDF7E4F9BDE810400148AB
:1034E000FDF762BA1C070020FEE700002DE9F0415D
:1034F00006460D46042D00DD04250024094F0BE08F
:1035000036F9142004EB440000EBC400D31707EB9A
:10351000C000FFF747FC641CAC42F1DB0020BDE8B3
:10352000F0810000C00100200907090E002804DB1B
:1035300000F1E02080F80014704700F00F0000F167
:10354000E02080F8141D704702E008C8121F08C16F
:10355000002AFAD170477047002001E001C1121F14
:10356000002AFBD1704700001CB5FEF7BDF8FFF73D
:1035700095FCFFF785F9FFF75FFAFFF7B1FAFFF760
:1035800041F9FFF78FFAFFF771FAFFF701FB1249D4
:1035900001F2DC50FDF769F91048D0F868190A68A3
:1035A00042F00D020A60D0F86809016841F020017C
:1035B00001606A4601A90A48FDF764F90028F8D1BC
:1035C00001980178D129F4D10421401CFFF78EFF26
:1035D000FFF7ACFAEDE70000400100201C87002057
:1035E0001C0700204068FDF781BF020304050607A1
:1035F00008090A0B0C0D0E0F10100102030405063A
:103600000708090A0B0C0D0E0F1000000000000047
:10361000000001020304060708090000000001027F
:1036200003040000443600080000002010000000E1
:10363000483500085436000810000020909400001F
:1036400058350008010000001000000000000000D4
:0436500000127A00EA
:040000050800019559
:00000001FF
