:020000040800F2
:1000000060C10020A9010008113E0008F135000878
:100010003D3D0008F5040008E9600008000000000C
:10002000000000000000000000000000FD4000088B
:10003000650B000800000000C340000833430008BF
:10004000C3010008C3010008C3010008C301000880
:10005000C3010008C3010008C3010008C301000870
:10006000C3010008C3010008C3010008190B000800
:10007000C3010008C3010008C3010008C301000850
:10008000C3010008C3010008C3010008C301000840
:1000900079600008C3010008C3010008C30100081B
:1000A000C301000825440008ED430008C30100080F
:1000B000C3010008C3010008C3010008C301000810
:1000C000C3010008C3010008C3010008C301000800
:1000D000C3010008C3010008C3010008DD4900088E
:1000E000C3010008C3010008C3010008C3010008E0
:1000F000C3010008C3010008C3010008C3010008D0
:10010000C30100080000000000000000C301000857
:10011000C3010008C3010008C3010008C3010008AF
:10012000C3010008C3010008C3010008C30100089F
:10013000C3010008C3010008000000000000000027
:10014000C3010008C3010008C3010008000000004B
:10015000000000000000000000000000000000009F
:10016000C3010008C3010008C3010008C30100085F
:10017000C3010008C3010008C3010008C30100084F
:10018000C3010008C30100080000000000000000D7
:10019000C3010008DFF80CD000F0FAF8004800476F
:1001A000BD62000860C1002006488047064800473D
:1001B000FEE7FEE7FEE7FEE7FEE7FEE7FEE7FEE717
:1001C000FEE7FEE7D1430008950100082DE9F05F46
:1001D0000546002092469B468846064681464024B6
:1001E0001BE0284641464746224600F020F8534689
:1001F0005A46C01A914110D311461846224600F0C3
:1002000081F82D1A67EB01084F4622460120002194
:1002100000F078F817EB00094E41201EA4F101040C
:10022000DFDC484631462A464346BDE8F09F202A97
:1002300004DB203A21FA02F00021704721FA02F390
:10024000D040C2F12002914008431946704740EA6D
:1002500001039B0703D009E008C9121F08C0042A44
:10026000FAD203E011F8013B00F8013B521EF9D22B
:100270007047D2B201E000F8012B491EFBD2704753
:100280000022F6E710B513460A4604461946FFF762
:10029000F0FF204610BDF0B4CA17CB0F50405140BC
:1002A000C61841F100054FEAC372314628004FF0ED
:1002B000960303D0B623F0BC00F03CB830460021D2
:1002C000F9E710B500F0004420F00040C20DC0F383
:1002D000160040F400007F2A02DA0020014610BD1B
:1002E0000021962A03DCC2F19602D04002E0963A41
:1002F00000F008F8002CF2D00023D0EB030063EBF1
:10030000010110BD202A04DB203A00FA02F100208E
:1003100070479140C2F1200320FA03F31943904043
:1003200070470029A8BF7047401C490008BF20F053
:100330000100704710B4B0FA80FC00FA0CF050EAEB
:10034000010404BF10BC704749B1CCF1200421FA6C
:1003500004F411FA0CF118BF012121430843A3EB67
:100360000C01CB1D4FEA00614FEA102042BF002074
:1003700010BC704700EBC35010440029A4BF10BC50
:100380007047401C490008BF20F0010010BC7047B6
:10039000064C074D06E0E06840F0010394E80700D2
:1003A00098471034AC42F6D3FFF7F8FE8863000894
:1003B000C863000870B58C1810F8015B15F00703CE
:1003C00001D110F8013B2A1106D110F8012B03E0EE
:1003D00010F8016B01F8016B5B1EF9D12B0705D4F6
:1003E0000023521E0DD401F8013BFAE710F8013B3F
:1003F000CB1A921C03E013F8015B01F8015B521E5B
:10040000F9D5A142D8D3002070BD70B5044620684C
:10041000816801F0030101292FD10168C9072CD09F
:10042000816801F00D01012909D0206C40F0100015
:100430002064606C40F001006064012070BD816840
:1004400041F00201816021680320086001F0ACFDE9
:1004500005460EE001F0A8FD401B022809D9206CDA
:1004600040F010002064606C40F0010060640120E6
:1004700070BD20688068C007ECD1002070BD00000E
:1004800070B504462068816801F00301012902D19A
:100490000168C90729D18168154A114209D0206C29
:1004A00040F010002064606C40F0010060640120A6
:1004B00070BD816841F00101816001F075FD054664
:1004C0000EE001F071FD401B022809D9206C40F0BC
:1004D00010002064606C40F001006064012070BD79
:1004E00020680068C043C007EBD1002070BD000049
:1004F0003F000080FEE704284FF000007047002016
:100500007047000010B500220449054804F07CFB48
:100510000449034804F072FB002010BDEC98002051
:10052000409000200495002070B505460C462946F1
:10053000064804F063FB054804F03FFB29460448E5
:10054000226800F090F8002070BD0000409000206C
:10055000D04F002010B50A460849D1F8B812D1F89A
:100560001412002901D0012010BD0146034804F0F7
:100570004BFBBDE81040014804F0C0BB4090002098
:1005800030B500F580439C6C002C21D0DD6B5C6C99
:10059000AC4203D100209864801E30BD00EB84047F
:1005A00004F5804464680C60596C00EB810000F530
:1005B000804040691060586C411C022901D2401CE7
:1005C00000E0401E5864986C401E9864002030BDC6
:1005D0004FF0FF3030BD3CB500F580439A6C002AE7
:1005E00022D093F83820002562B95A6C00EB8202C1
:1005F00002F580425468DC6252695A631D6301222D
:1006000083F838201A6B541C1C63DC6AA25C0A70E5
:10061000D3E90C12914205D383F838506A4601A9F8
:10062000FFF7AEFF00203CBD4FF0FF303CBD10B5E2
:1006300000F58043DC6B00EB840404F580446160CA
:10064000D96B00EB810000F580404261D86B411C02
:10065000022901D2401C00E0401ED863986C401C67
:100660009864002010BD70B505460E46144621461C
:10067000284600F015F822463146FFF7E8FD2846E7
:1006800000F002F8002070BD00B500F580410022A6
:1006900081F828204A6AC969FFF7C9FF002000BD18
:1006A00030B500F580424FF48045136C00240B44B4
:1006B000AB4200D31464136C801C1844D0615162A7
:1006C0001462012482F828405C18AC4202D3A1F5E0
:1006D00080415C18146430BD10B500F58040D0E94D
:1006E00008345A1CA34204D20262C069C1540020DB
:1006F00010BD02624FF0FF3010BD00F580400021B8
:1007000080F8281001620020704700F58040416A9F
:10071000006A081A704700F58040806C70470246F6
:100720004FF0FF3040F2012300290FD0802A71D012
:100730007EDC212A70D061DC112A6ED055DC062ABD
:100740006CD2DFE802F0A1A3A5A7A9AB932A3CD005
:1007500016DC422A31D009DC302A28D0312A28D0B0
:10076000402A28D0412A00D101207047512A26D0A2
:10077000902A26D0912A26D0922AF6D11846704780
:10078000F02A2AD009DCAD2A21D0B02A21D0B12A02
:1007900021D0C02AF3D102207047F12A1FD0F22ABB
:1007A0001FD0F32A1FD0F42AF6D118467047012033
:1007B0007047012070470120704702207047812058
:1007C00070471846704718467047112070478920B7
:1007D0007047032070471920704718467047184625
:1007E00070471846704718467047122A5AD0132A85
:1007F0005AD0142A5AD0202A46D159E0402A63D030
:100800000DDC222A58D0232A58D0302A58D0312A39
:100810003AD157E062E00BE04CE041E034E0412A9D
:1008200054D0422A54D0502A54D0512A2CD153E0CB
:10083000B12A67D014DC932A5AD008DC832A4FD01F
:10084000902A4FD0912A4FD0922A1DD14EE0AB2A48
:1008500050D0AC2A50D0AD2A50D0B02A14D14FE09D
:10086000F02A59D008DCD12A4ED0D22A4ED0D32A31
:100870004ED0D42A08D14DE0F12A4FD0F22A4FD0E1
:10088000F32A4FD0F42A4FD0012070471846704702
:10089000184670471846704701207047012070477E
:1008A00002207047052070470320704706207047DC
:1008B0001520704715207047192070471920704780
:1008C00001207047012070470120704701207047C8
:1008D00002207047012070470120704701207047B7
:1008E00002207047012070470120704701207047A7
:1008F000022070470220704702207047892070470D
:1009000003207047192070470D2070470F20704753
:10091000012070470F2070471846704718467047EF
:1009200018467047184670471846704700B502468B
:10093000084600F0C8F802F5004298325160086895
:10094000106000BD44F24C031844FFF719BE44F296
:100950004C010844FFF798BE44F24C021044FFF7E4
:10096000BBBE2DE9F04107464FF0FF3544F24C0085
:1009700007EB000807F50044D4F8980002689206D7
:1009800051D5C26992064ED5C26922F02002C261D9
:10099000D4F89800808CC6B2D4F8A00082053BD56C
:1009A00044F2280010F8080060B93046FFF7B7FE9F
:1009B0000146002903DD4046FFF772FE02E0404693
:1009C000FFF79BFE4046FFF7A0FE00280FDD3146F3
:1009D0003846FFF7C1FF401C25D14046FFF78DFE8A
:1009E00054F8A00F20F40070206000251BE03E2E7C
:1009F00008D04046FFF781FE54F8A00F20F40070A5
:100A0000206010E03846FFF7A2FF54F8A00F20F452
:100A100000702060002506E03C2E04D140F40070F8
:100A2000C4F8A00000252846BDE8F081FFF7D3BD3B
:100A300070B504460E46154629462046FFF730FE9F
:100A40002A463146FFF703FC2046FFF71DFE04F55A
:100A50000044D4F89800016841F089010160002049
:100A600070BD38B505464FF0FF3005F50044D4F8A9
:100A700098100A68120613D5C969090610D52846C8
:100A8000FFF749FE002816DD69462846FFF7CEFF2E
:100A900038B1D4F89800016821F08001016000208D
:100AA00038BDD4F89800C1690906FCD59DF800103E
:100AB0000185002038BDD4F89800016821F080013C
:100AC0000160002038BD704714300A6882624A68AD
:100AD000C2628A680263CA6842630A8A02878A8A93
:100AE00042870A8B82878A8BC28791ED080A80ED44
:100AF000080A91ED090A80ED090A8A6A40F8102C6B
:100B0000C96A40F8081C0022426182610021C1606C
:100B10004260826070470000014801F0D1B80000D7
:100B2000200100100C4B01681422994208D20B4B93
:100B30001944B1FBF2F1890001640949C1637047AE
:100B4000054B5B421944B1FBF2F189000164024993
:100B50000839C1637047000008040240F8FFFDBF78
:100B600000000240704700002DE9F04F8BB014AD3B
:100B70000446E0CD5048D0F84CC0CDF81CC0006D04
:100B80000890BDF81C000844ADF82400BDF81E0014
:100B90001044ADF82600BDF820001844ADF8280038
:100BA0004648D0E903124069CDE90412069095FB4E
:100BB000F4F0019096FBF4F0029097FBF4F00390B0
:100BC0000026DFF8F4804FF0FF3B09AF08F14C0836
:100BD000DFF8ECA00DF104095AE00498049937F904
:100BE000100006FB140028F811000598059937F944
:100BF000100006FB140028F81100002512E00698EA
:100C0000069937F9100005FB040028F811002A485E
:100C100003214C3005F06AFA03F052F8DAF80000CC
:100C2000F0B36D1C069859F82000A842E7DA059841
:100C3000761C59F82000864229DC0498049937F97B
:100C4000100006FB140028F811000598059937F9E3
:100C5000100006FB140028F81100069859F82050DF
:100C6000002D14DB0698069937F9100005FB0400E7
:100C700028F81100104803214C3005F037FA03F032
:100C80001FF8DAF80000A0B16D1E002DEADA761C1C
:100C9000059859F82000B0429FDA032107A800E028
:100CA00005E005F023FA00200BB0BDE8F08F5846B0
:100CB000FAE75846F8E70000E88F0020386300089C
:100CC00000000010704700F6B8300022426001605A
:100CD000028240F2DC51C1608260A0F6B83000218F
:100CE00002E020F81120491CD0F8C43B8B42F8DC0C
:100CF0007047B0F8C82B920702D54FF0FF3070470D
:100D00000122A0F8C82BD0F8C02B531CC0F8C03B60
:100D1000D0F8B83B00EB420291FBF3F11388194481
:100D2000118000F53C6106C9914210DB0021C0F83A
:100D3000C01BD0F8BC1B491CC0F8BC1BD0F8B82B9A
:100D4000914202DB0221A0F8C81B0120704700205D
:100D50007047000010B50B480168001D0468001DB5
:100D60000068084400280BD00822074902F041FC23
:100D7000054920460422BDE81040103102F039BC7C
:100D800010BD0000ACF7FF1F1E0000102DE9F04160
:100D900004460D4694F83C0001280AD04FF00108A3
:100DA00084F83C802046FFF730FB064600271EB142
:100DB00032E00220BDE8F081C4F8408020688168FC
:100DC00021F080418160012D04D12068816841F0CB
:100DD000804181602068816841F00041816001F0BC
:100DE000E3F805460EE001F0DFF8401B0A2809D9B8
:100DF000206C20F0020040F01000206484F83C7069
:100E00000120D7E7206880680028ECDB206C20F008
:100E1000020040F00100206484F83C703046C9E7CD
:100E20002DE9F04F95B000230025009500240269BC
:100E300090F83C60012E14D0012780F83C70DFF858
:100E400000E441F20C0A41F2180BFE4EDFF8F89371
:100E5000DFF8F8C34AB18A69012A06D0C46CACB382
:100E600074E0022015B0BDE8F08F4A68012A05D071
:100E7000026C42F020020264012388E00A6A012A1F
:100E800025D00468644501D0B44217D1082A07D0A0
:100E9000142A07D01C2A07D04A4507D14A460FE03A
:100EA00034220DE01C220BE0102209E0524501D152
:100EB000142205E05A4503D12C2201E022F480528D
:100EC0000C6842EA04224C6A224303E00DE00A68FF
:100ED00044EA02220468D4F84C8008EA0E0848EA82
:100EE0000208C4F84C80826451E0C26485640A6AD6
:100EF000012A28D00468D1F82480644501D0B44286
:100F000017D1082A07D0142A07D01C2A07D04A452F
:100F100007D14A460FE034220DE01C220BE01022DC
:100F200009E0524501D1142205E05A4503D12C2293
:100F300001E022F480528C69641E224348EA0208D0
:100F4000C0F8488002E08A69521E82640C79826C83
:100F500004EB4408022404EB48044FF01F0808FA8D
:100F600004F822EA0802D1F8008008FA04F842EAFC
:100F700008028264C46C641EC46444B90468D4F872
:100F80004C8008EA0E0848EA0208C4F84C8002685F
:100F90009468240720D44C7F5CB1D46891F81E80FB
:100FA00024F4401444EA4854D4600A7F012A0ED045
:100FB00012E08C7F91F81C80640544EA0854D2F852
:100FC0000C8028F4401844EA0804D46004E0026C61
:100FD00042F0200202640123026894684FF007097E
:100FE00014F00C0F7DD10C6A012C07D0D46824F0CA
:100FF0000074D4604A7F012A09D00DE0D46891F8CA
:101000001D8024F0007444EA4864D46004E0026C5B
:1010100042F02002026401230A680A2A12D30468FB
:10102000D4F818800A3A02EB420209FA02FA28EAD6
:101030000A08D1F808A00AFA02FA48EA0A08C4F82D
:10104000188010E00468D4F8148002EB420209FA18
:1010500002FA28EA0A08D1F808A00AFA02FA48EACD
:101060000A08C4F8148002684C69D2F80C80C8F3EE
:10107000C1084FEA480804FA08F4D1F81080DFF8F4
:10108000D0A1B8F1010F44D0B8F1020F4FD0B8F1A0
:10109000030F5AD0B8F1040F65D0146E91F8008098
:1010A00004F0F844B4EB886F03D1146E24F00044CC
:1010B00014660268546E91F8008004F0F844B4EBB2
:1010C000886F03D1546E24F0004454660268946E15
:1010D00091F8008004F0F844B4EB886F05D1946E69
:1010E00000E00FE024F0004494660268D46E91F8AA
:1010F000008004F0F844B4EB886F03D1D46E24F080
:101100000044D4660268946804F00304012C3BD1C7
:1011100037E0D2F8608008EA0A0891F800A044EAB3
:101120008A6448EA040848F000441466EAE7D2F802
:10113000648008EA0A0891F800A044EA8A6448EA50
:10114000040848F000445466DCE7D2F8688008EAF6
:101150000A0891F800A044EA8A6448EA040848F0C2
:1011600000449466CEE7D2F86C8008EA0A0891F849
:1011700000A044EA8A6448EA040848F00044D466BF
:10118000C0E71468E4076BD1CC68012C08D052F892
:10119000B04F91F8008007FA08F7BC4314602BE0C9
:1011A00052F8B04F91F8008007FA08F73C431460FA
:1011B0000A680A2A10D30468A769093A02EB4202B6
:1011C000D1F8088009FA02F927EA090708FA02F8B3
:1011D00047EA0807A7610FE004686769521C02EB41
:1011E0004202D1F8088009FA02F927EA090708FA49
:1011F00002F847EA0807676104684FF0A047DFF884
:101200005480BC4201D0444501D1134A00E0134A46
:101210000968102904D1D2F808905FEA09290DD590
:10122000112904D1D2F808905FEAC91906D512290C
:1012300042D1D2F808905FEA49293DD4BC4210E07F
:101240000020088200050050080001000004005042
:1012500000F0FF8300010050000300500007005021
:101260002AE002D1CDF804800DE0444501D1019778
:1012700009E0644501D1019605E0B44202D1CDF800
:1012800004C000E00195A66806F00306012E02D115
:101290002668F6070BD1019E96B1019EB66806F04E
:1012A0000306012E0CD1019E3668F60708D0016CAA
:1012B00041F020010164012380F83C501846D1E53B
:1012C000102916D1BC4214D1916841F400019160FB
:1012D0001049114A0968B1FBF2F101EB81014900A3
:1012E000009102E00099491E009100990029F9D16E
:1012F000E2E7112906D1BC4204D1916841F0807126
:101300009160D9E71229D7D1916841F480019160A9
:10131000D2E700002C00002040420F002DE9F041F0
:1013200004460D46606908280DD0602720684FF0FC
:10133000A0412C4B884201D0984206D1D1F8082315
:1013400002F01F0205E04027F0E7274A126802F08A
:101350001F0222B1884202D0244A904201D1C668BD
:1013600003E0984200D01146CE6800F01DFE804692
:1013700012E0681C10D02DB100F016FEA0EB0800A2
:10138000A84209D9206C40F004002064002084F8B1
:101390003C000320BDE8F081206800683842E8D0B6
:1013A000206C40F4005020642068C16C11F0C00F24
:1013B00008D0B10111D4C16806F4005201F44061B3
:1013C00011430AD1216C21F480512164216CC9059B
:1013D00003D4216C41F001012164710400D4076041
:1013E0000020D7E70001005008070050000400501B
:1013F0002DE9F041044620688068000779D494F80C
:101400003C0001280BD0012084F83C002046FFF767
:1014100037F80146002729B184F83C706AE00220C1
:10142000BDE8F081206C42F20102904340F480500C
:10143000206420684FF0A0462F4B304DB04201D0C1
:10144000984204D1D6F8082302F01F0202E02A686D
:1014500002F01F02DFF8A8C01AB1B04201D0604507
:1014600004D1226C22F48012226403E0226C42F444
:1014700080122264226CD20500D4676484F83C7028
:10148000602202602068C268920133D4B04201D069
:10149000984204D1D6F8082302F01F0202E02A681D
:1014A00002F01F02FAB1B04201D0984204D1D6F83E
:1014B000082302F01F0202E02A6802F01F02062A37
:1014C00011D0B04201D0984204D1D6F8082302F0DE
:1014D0001F0202E02A6802F01F02072A03D0B0426E
:1014E00001D0604506D1826842F00802826001E0C6
:1014F000FFE70221084693E700010050080700506B
:1015000000040050F0B594B0002302684FF0A045ED
:101510003F4C0026AA4201D1009410E0A24201D122
:1015200000950CE03B4FDFF8F0C0BA4202D1CDF895
:1015300000C004E0624501D1009700E00096009FE2
:101540009FB190F83C70012F12D0012780F83C70B9
:1015500097687F0753D4009FBF687F074FD4AA4284
:1015600001D0A24206D12D4A05E0012014B0F0BD01
:101570000220FBE72A4A0C6840F61F7524B39468E2
:1015800090F8307024F4604444EA47344F683C4398
:1015900094600468A76807F00307012F02D124684C
:1015A000E40731D1009CA46804F00304012C03D1AA
:1015B000009C2468E40727D10C6889680C43916873
:1015C000A9430C4394601FE0916821F4604191604D
:1015D00001688C6804F00304012C02D10968C90772
:1015E00012D10099896801F00301012903D1009902
:1015F0000968C90708D19168A943916004E0016CAA
:1016000041F020010164012380F83C601846ADE7F9
:10161000000100500004005000050050000300507D
:10162000000700502DE9F04195B0002500260096F6
:1016300090F83C20012A19D0012780F83C700268FC
:1016400093685B077ED44B681F24052B12D2D2F817
:1016500030C003EB43035B009C402CEA040C0C6895
:101660009C404CEA040CC2F830C036E0022015B0B1
:10167000BDE8F0810A2B0FD2D2F834C05B1F03EB18
:1016800043035B009C402CEA040C0C689C404CEA31
:10169000040CC2F834C020E00F2B0FD2D2F838C0AF
:1016A0000A3B03EB43035B009C402CEA040C0C68F0
:1016B0009C404CEA040CC2F838C00EE0D2F83CC0A2
:1016C0000F3B03EB43035B009C402CEA040C0C68CB
:1016D0009C404CEA040CC2F83CC0026893684FF08E
:1016E000070C13F00C0F63D10B680A2B0FD394690E
:1016F0000A3B03EB43030CFA03F824EA0804D1F88D
:10170000088008FA03F844EA080494610DE054697B
:1017100003EB43030CFA03F824EA0804D1F8088029
:1017200008FA03F844EA0804546102684B69D46873
:10173000C4F3C1046400A3400C69DFF84882012CA3
:101740003DD000E015E1022C45D0032C4FD0042CF5
:1017500059D0136E0C7803F0F843B3EB846F03D1C8
:10176000136E23F0004313660268536E0C7803F087
:10177000F843B3EB846F03D1536E23F000435366F9
:101780000268936E0C7803F0F843B3EB846F03D1D7
:10179000936E23F0004393660268D36E0C7803F0D7
:1017A000F843B3EB846F03D1D36E23F00043D366C9
:1017B0000268936803F00303012B33D12FE0146E0A
:1017C00004EA080491F8008043EA88631C4344F06B
:1017D00000431366ECE7546E04EA080491F80080B5
:1017E00043EA88631C4344F000435366E0E7946E89
:1017F00004EA080491F8008043EA88631C4344F03B
:1018000000439366D4E7D46E04EA080491F800809C
:1018100043EA88631C4344F00043D366C8E7136877
:10182000DB077CD1CB68012B06D052F8B03F0C7897
:10183000A740BB43136023E052F8B03F0C78A740A9
:101840003B4313600A680A2A0DD303689C69093A6E
:1018500002EB42020CFA02FC8F6824EA0C04974067
:101860003C439C610CE003685C69521C02EB420241
:101870000CFA02FC8F6824EA0C0497403C435C613C
:1018800003684FF0A044404FA34201D0BB4201D1B6
:101890003E4A00E03E4A0968102904D1D2F808C047
:1018A0005FEA0C2C0DD5112904D1D2F808C05FEAEB
:1018B000CC1C06D5122961D1D2F808C05FEA4C2CA5
:1018C0005CD4A34201D1019710E0BB4201D1019445
:1018D0000CE0304FDFF8C0C0BB4202D1CDF804C0ED
:1018E00004E0634501D1019700E001969F6807F08D
:1018F0000307012F02D11F68FF070BD1019F7FB1A2
:10190000019FBF6807F00307012F09D1019F3F68BE
:10191000FF0705D0016C41F02001016401252DE095
:10192000102916D1A34214D1916841F400019160AD
:101930001A491B4A0968B1FBF2F101EB8101490028
:10194000009102E00099491E009100990029F9D107
:1019500014E0112906D1A34204D1916841F08071AD
:1019600091600BE0122909D1916841F480019160E6
:1019700004E0016C41F020010164012580F83C6025
:10198000284674E600F0FF83000100500003005079
:101990000007005000040050000500502C000020FB
:1019A00040420F002DE9F04196B004460025002783
:1019B00000260196002C05D0206CC0064DD4206C6A
:1019C00020B138E0012016B0BDE8F0816664E6641D
:1019D000A66484F83C60204600F02AF920688068FC
:1019E000C00028D42046FEF710FD0546206C00F00C
:1019F000100129431FD1206C20F4885040F00200D0
:101A000020642068816821F04051816020688168ED
:101A100041F0805181607E487E490068B0FBF1F062
:101A200000EB80004000019002E00198401E019010
:101A300001980028F9D120688168C90002D5806822
:101A400080000AD5206C20F0020040F010002064D5
:101A5000606C40F0010060640125206C00F0100013
:101A6000284371D12068816849076DD4216C21F425
:101A7000807141F0020121644FF0A048664A404560
:101A800001D0904201D1654900E06549654BDFF81E
:101A900098C1404501D102920EE0904202D1CDF8AA
:101AA000088009E0604501D1029305E0984202D127
:101AB000CDF808C000E00296826802F00302012A15
:101AC00002D10068C00711D1029848B1029880681D
:101AD00000F00300012803D102980068C00705D177
:101AE0008868626820F4403010438860D4E90201BD
:101AF0000143606B012802D04FF4805200E00022C5
:101B0000607E42EA40321143394394F82020012A92
:101B10000AD1D0B1206C20F0020040F020002064F7
:101B2000606C40F001006064A06A012836D0226831
:101B3000624501D09A422CD14FF430734FF4E072D9
:101B4000984209D1104626E058E0A08C401E41EA98
:101B5000404040F48031E7E74FF48077B84201D14C
:101B6000184618E0904201D1384614E0B0F58A5F7B
:101B700006D0B0F5845F06D0B0F5865F06D00AE0E7
:101B80004FF4707007E04FF4A07004E04FF4C070A1
:101B900001E020F480500843E16A01432068826834
:101BA00012F00C0F0BD1C26844F202039A43C260D8
:101BB000207E94F83020800340EA420001432068F0
:101BC000C2681A4B1A400A43C260206901280CD02F
:101BD0002068016B21F00F0101636664206C20F026
:101BE000020040F0010020640FE02068016BE26910
:101BF00021F00F01521E11430163EEE7206C20F02B
:101C0000020040F01000206401252846DBE60000B9
:101C10002C00002040420F00000100500003005043
:101C200000070050000500500004005007C0F0FFFE
:101C300070B586B00546142101A8FEF721FB28687F
:101C4000B0F1A04F33D11B49486940F08050486142
:101C5000486900F080500090486940F400304861C5
:101C6000486900F4003000900D200190032002909C
:101C70000026039601A94FF0904000F0B7F80F4CF2
:101C80000D4820606660A6608020E0604000206112
:101C9000800060612020A0614FF44050E061204648
:101CA00000F06BF808B1FFF70DF8AC63656206B0A1
:101CB00070BD00000010024008000240200100102A
:101CC000F0B4C16B0A6801680B68046C042606FA5C
:101CD00004F5154213D05D0711D50A68920603D4A6
:101CE0000A6822F004020A6090F8401006FA01F532
:101CF000C16B4D60C16A00293DD0F0BC08474FF070
:101D0000020C0CFA04F616424FF000074FF00105E2
:101D100017D09E0715D50A68920605D40A6822F0E6
:101D20000A020A6080F8215090F840100CFA01F67F
:101D3000C16B4E6080F82070816A00291BD0F0BC16
:101D400008470826A640164215D01A0713D50A6878
:101D500022F00E020A6090F84010C26B05FA01F101
:101D60005160856380F8215080F82070016B002954
:101D700001D0F0BC0847F0BC704770B50446002C99
:101D800020D0022084F821002068026843F6F07118
:101D90008A43D4E901131943D4E903352B4319438A
:101DA00063691943A3691943E36919431143016046
:101DB0002046FEF7B7FE00202034A06101216170AB
:101DC000207070BD012070BD70B5044600F0ECF8C5
:101DD0000546601C02D004480078044400F0E4F892
:101DE000401BA042FAD370BD380000102DE9F84F17
:101DF0000022DFF88481DFF880A14FF0010E4FF060
:101E00000F0C08F104090AF10C0AAEE00EFA02F612
:101E10003340002B70D04C68022C01D0122C11D111
:101E2000D40800EB84073D6A5407E40E0CFA04FB67
:101E300025EA0B05D1F810B00BFA04FB4BEA050BB1
:101E4000C7F820B0076854000325A540AF4391F8B8
:101E500004B00BF0030B0BFA04FB4BEA070BC0F8C2
:101E600000B04F68012F05D0022F03D0112F01D0F1
:101E7000122F11D18768AF43D1F80CB00BFA04FBD5
:101E80004BEA070BC0F808B04768B7430E79C6F3B2
:101E9000001696403E434660C668AE438D68A54036
:101EA0003543C5604C68E4005ED5344CA56945F007
:101EB0000105A561A46904F001040094304C22F0EE
:101EC00003052E19B7689407250F0CFA05F4A743EC
:101ED000B0F1904F04D02B4CA04203D101241CE060
:101EE00000241AE0284CA04201D1022415E0274C1E
:101EF000A04202D1032410E036E0254CA04201D1DB
:101F000004240AE0234CA04201D1052405E0224C20
:101F1000A04201D1062400E00724AC403C43B46059
:101F2000D8F800409C434D68ED0300D51C43C8F829
:101F30000040D9F800409C434D68AD0300D51C43D8
:101F4000C9F800400C4D08352C689C434E68F602D9
:101F500000D51C432C60DAF800409C434D68AD026C
:101F600000D51C43CAF80040521C0B6833FA02F437
:101F70007FF44CAFBDE8F88F000401400010024030
:101F8000000001400004004800080048000C004820
:101F9000001000480014004800180048002A01D032
:101FA0008161704781627047014880687047000016
:101FB000380000100248816802781144816070473F
:101FC0003800001010B50748016841F010010160A9
:101FD000032000F06FF8002000F006F800F026F86B
:101FE000002010BD0020024070B504460D4D4FF496
:101FF0007A712878B1FBF0F00B490968B1FBF0F079
:1020000001F004F908B1012070BD102C07D20022A4
:102010002146501E00F02EF86C60002070BD01209B
:1020200070BD0000380000102C00002008B50948E1
:10203000816941F001018161816901F00101009133
:10204000C16941F08051C161C06900F080500090C9
:1020500008BD000000100240002809DB00F01F024C
:10206000012191404009800000F1E020C0F80011FA
:1020700070470000F0B40D460D4B1B68C3F30223FC
:10208000C3F10704042C00D90424191D072901D227
:10209000002300E0DB1E012606FA04F1491E294058
:1020A00099409E40761E16403143F0BC04F06AB859
:1020B0000CED00E000F00701054A10684FF6FF0341
:1020C000184040EA012003490843106070470000AF
:1020D0000CED00E00000FA0510B50C0605D501F086
:1020E000070100EB4110283003E000EB411000F540
:1020F000947099B232B1012202730181190C4181AD
:10210000002010BD00220273C180F9E7704700EB88
:102110004112D0F86802D26B03F05FB800EB4112B5
:10212000D0F86802D2F83C2103F0C2B870B504467A
:102130000B0601F0070004EB40114FF001024FF0D5
:10214000000502D528314A7002E001F594714D7006
:10215000087094F82802012808D084F82822206802
:1021600003F073FD84F82852002070BD022070BD7A
:1021700070B5044601F00F006268904201D9012059
:1021800070BD0B0601F0070004EB40114FF0010297
:102190004FF0000502D528314A7002E001F5947134
:1021A0004D708D70087094F82802012808D084F8CA
:1021B0002822206803F0FDFD84F82852002070BD1D
:1021C000022070BD01F0070100EB4110D0F844017E
:1021D00070472DE9F04104460F0601F0070004EBBB
:1021E00040114FF001064FF0000502D528314E7026
:1021F00002E001F594714D7008700A61CB704A7865
:1022000002B1C881022B00D10D7194F82802012877
:1022100009D084F82862206803F0BAFB284684F8C5
:102220002852BDE8F0810220FBE770B50D4605F0AD
:10223000070400EB441101F594714A618B6100229F
:10224000CA614A700C706A0704D0006803F011FE7E
:10225000002070BD006803F00CFEF9E770B504467D
:102260000D46616805F00700884201D9012070BD64
:1022700029064FF000064FF0010204D504EB40118F
:1022800028314A7004E004EB451101F594714E7059
:102290008A70087094F82802012807D084F8282250
:1022A000206803F0C8FD680702D006E0022070BD78
:1022B00004F50C71206803F07AFD84F82862002090
:1022C00070BD70B50D4605F0070400EB44112831D0
:1022D0004A618B610022CA6101224A700C706A0750
:1022E00004D0006803F0C5FD002070BD006803F055
:1022F000C0FDF9E710B50446206803F0C3FE0004F2
:1023000002D5204601F085FD206803F0BBFE4005A4
:102310000CD5206830F8441F21F4806101802046EC
:1023200000F0D8F80021204600F0EFF8206803F014
:10233000A9FE400405D5206830F8441F21F48041EF
:102340000180206803F09EFE800405D5206830F8E7
:10235000441F21F400510180206803F093FEC00463
:1023600014D5206830F8401F21F004010180206856
:1023700030F8401F21F008010180204600F0BDF830
:10238000206830F8441F21F480510180206803F058
:1023900079FE00051AD5206830F8401F41F0080189
:1023A0000180206830F8441F21F40061018020681A
:1023B00030F8401F41F004010180206803F062FE04
:1023C000C043C00402D5204600F0D4F8206803F0D2
:1023D00059FE800508D5206830F8441F21F40071AB
:1023E0000180204600F08DF8206803F04BFEC00508
:1023F00005D5206830F8441F21F48071018010BD9C
:1024000070B586B00446002C04D094F8290200254B
:1024100018B107E0012006B070BD84F828522046AC
:1024200000F03AF8032084F82902206803F0B8FC91
:10243000002101260BE004EB4110283046700170AA
:10244000C181C570056145618561491CC9B260687B
:102450008842F0D800210BE004EB411000F59470A5
:1024600045700170C570056145618561491CC9B23F
:1024700060688842F0D8142204F110016846FDF724
:10248000E6FE94E80F0003F07EFC84F8245084F804
:1024900029620020BFE7000008B500680B498842A8
:1024A00012D10B48C16941F40001C161C06900F457
:1024B00000000090002211461420FFF7DBFDBDE86C
:1024C00008401420FFF7C8BD08BD0000005C0040B4
:1024D0000010024070B504460125A068022801D012
:1024E000FEF7F0FB2946D4F8680202F0CBFFD4F8DF
:1024F0006802BDE8704002F086BFD0F8680202F0C2
:10250000ABBFD0F8680202F0B1BF10B5044694F832
:10251000280201280BD0012084F8280284F8241016
:10252000206803F0C7FD002084F8280210BD0220B7
:1025300010BDD0F8682200F50C71104602F0AEBF55
:1025400010B5044694F82802012810D0012084F820
:10255000280201212046FFF7D9FD206803F011FC75
:10256000206803F081FD002084F8280210BD0220BD
:1025700010BD000010B50446D4F8680202F0CDFF8B
:10258000A069002804D00348016841F006010160F9
:1025900010BD000010ED00E02DE9F84F0446A14DFC
:1025A0002068C00370D50026E869C00008D4E86937
:1025B00040F08050E861E86900F08050009001260A
:1025C000994F3868C00513D4386840F4807038607B
:1025D000FFF7EAFC804608E0FFF7E6FCA0EB080006
:1025E000642802D90320BDE8F88F3868C005F3D508
:1025F000286A00F4407078B3A18801F440718142E8
:102600004DD0286A20F440704FF4803191FAA1F245
:10261000B2FA82F29300854A4FF001081344C3F8DE
:10262000008491FAA1F1B1FA81F102EB810100235A
:10263000C1F800342862C00731D0FFF7B5FC074667
:1026400041F2883A4FF0020907E0FFF7ADFCC01BEA
:10265000504502D90320C6E721E099FAA9F0B0FA63
:1026600080F040F040004146B8EB501F01D128688F
:102670000CE099FAA9F0B0FA80F040F04000B9EB14
:10268000501F02D1286A01E015E0686A99FAA9F2A0
:10269000B2FA82F202F01F0291400842D5D0286AB5
:1026A000616820F4407008432862012E03D1E86974
:1026B00020F08050E8612078C00705D0286BA16821
:1026C00020F00300084328632078800705D5286B95
:1026D000E16820F44030084328632078400705D59E
:1026E000286B216920F44020084328632078800665
:1026F00005D5286BE16920F01000084328632068A5
:10270000800305D56868616D20F480000843686027
:102710002078400605D5286B216A20F02000084368
:1027200028632068400305D5286B616A20F04000CB
:10273000084328632078000705D5286B616920F4D9
:102740004010084328632078C00605D5286BA1698E
:1027500020F44000084328632088800505D5686878
:10276000216B20F40000084368602078000605D53E
:10277000E86AA16A20F4F8700843E8622088C0057E
:1027800005D5E86AE16A20F478500843E8622088B9
:10279000C00405D5286B616B20F480700843286362
:1027A0002088800405D5286B216C20F40070084334
:1027B00028632068C00205D5286BA16B20F08070CB
:1027C000084328632068800205D5286BE16B20F060
:1027D0000070084328632068400205D5286B616CAF
:1027E00020F48060084328632068000205D5286B28
:1027F000A16C20F40060084328632068C00105D55F
:10280000286BE16C20F400500843286320688001A5
:1028100005D5286B216D20F4004008432863002073
:10282000E1E600000010024000700040000042425B
:102830002DE9F04704460D46002C17D0DFF89481AF
:10284000D8F8000000F00700A84211D2D8F8000024
:1028500020F007002843C8F80000D8F8000000F076
:102860000700A84204D00120BDE8F0870120FBE763
:102870002078594E800705D57068A16820F0F000D7
:10288000084370602078C00765D060680122012885
:102890000CD0022822D0022393FAA3F1B1FA81F1DD
:1028A00041F02001490931D0316830E04FF4003364
:1028B00093FAA3F1B1FA81F141F02001490901D065
:1028C000316800E0716A93FAA3F3B3FA83F303F07B
:1028D0001F039A40114225D10120C5E74FF0007334
:1028E00093FAA3F1B1FA81F141F02001490901D035
:1028F000316800E0716A93FAA3F3B3FA83F303F04B
:102900001F039A4011420DD10120ADE7716A93FA7D
:10291000A3F3B3FA83F303F01F039A40114201D1EA
:102920000120A1E7716821F0030101437160FFF705
:102930003BFB074641F2883906E0FFF735FBC01B39
:10294000484501D903208FE77068616800F00C00EA
:10295000B0EB810FF1D1D8F8000000F00700A842D9
:102960000ED9D8F8000020F007002843C8F800006E
:10297000D8F8000000F00700A84201D0012073E75A
:102980002078400705D57068E16820F4E0600843CE
:1029900070602078000706D57068216920F46050C7
:1029A00040EAC100706000F051F87168F02292FABC
:1029B000A2F201F0F001B2FA82F2D140074A515C72
:1029C000C8400749086007480068FFF70DFB002072
:1029D0004AE7000000200240001002407063000837
:1029E0002C0000203C0000100148006870470000E7
:1029F0002C00002000B5FFF7F7FF074949684FF4A6
:102A0000E06292FAA2F201F4E061B2FA82F2D140FD
:102A1000024A515CC84000BD0010024080630008BB
:102A200000B5FFF7E1FF074949684FF4605292FA99
:102A3000A2F201F46051B2FA82F2D140024A515C32
:102A4000C84000BD001002408063000810B5184B5C
:102A50005968184801F00C02042A20D0082A1ED117
:102A60004FF4701494FAA4F401F47012B4FA84F4DC
:102A7000E240114CA45CDA6A0F2393FAA3F302F04C
:102A80000F02B3FA83F3DA400B4B10339A5CC9039D
:102A900006D500231946FDF799FBA0FB040110BDE4
:102AA00000231946FDF792FBA0FB040110BD0000B6
:102AB0000010024000127A00506300082DE9F84F20
:102AC0000446002C11D02078F74EC0074FF00105C6
:102AD00078D070686F04C0F38100012823D070683B
:102AE000C0F38100022803D007E00120BDE8F88F81
:102AF0007068C0F3C130022815D06068B0F5803F1F
:102B00002AD070B3B0F5A02F35D0306820F48030D3
:102B10003060306820F4802030606068A0B3FFF738
:102B200043FA804639E097FAA7F0B0FA80F040F017
:102B30002000400901D0306800E0706A97FAA7F1E0
:102B4000B1FA81F101F01F0105FA01F108425BD0F1
:102B50006068B8BB0120C9E7306840F4803030605D
:102B6000DBE7FFE7306820F480303060306820F425
:102B700080203060D1E7306840F4802030603068D9
:102B800040F480303060C8E71DE0FFF70DFAA0EB9D
:102B90000800642801D90320A8E797FAA7F0B0FA43
:102BA00080F040F02000400901D0306800E0706AF9
:102BB00097FAA7F1B1FA81F101F01F0105FA01F1CD
:102BC0000842E2D020E0FFF7EFF9804607E0FFF788
:102BD000EBF9A0EB0800642801D9032086E797FAF7
:102BE000A7F0B0FA80F040F02000400901D0306832
:102BF00000E0706A97FAA7F1B1FA81F101F01F01C4
:102C000005FA01F10842E2D12078DFF8A0828007BE
:102C10004FF0000B4FF0020740D570684FF0F80AF4
:102C200010F00C0F15D07068C0F38100022804D199
:102C30007068C0F3C13001280BD0E06878B395FA12
:102C4000A5F0B0FA80F048F82050FFF7ADF98146C2
:102C50002EE097FAA7F0B0FA80F040F0200040098B
:102C600001D0306800E0706A97FAA7F1B1FA81F1FB
:102C700001F01F0105FA01F1084204D0E0680128C3
:102C800001D0012032E730689AFAAAF22169B2FA3B
:102C900082F220F0F80091400843306050E028E0D4
:102CA000FFF782F9A0EB0900022801D903201DE7F4
:102CB00097FAA7F0B0FA80F040F02000400901D068
:102CC000306800E0706A97FAA7F1B1FA81F101F07B
:102CD0001F0105FA01F10842E2D030689AFAAAF21F
:102CE0002169B2FA82F220F0F80091400843306086
:102CF00026E095FAA5F0B0FA80F048F820B0FFF78A
:102D000053F9814607E0FFF74FF9A0EB09000228CD
:102D100001D90320EAE697FAA7F0B0FA80F040F074
:102D20002000400901D0306800E0706A97FAA7F1EE
:102D3000B1FA81F101F01F0105FA01F10842E2D177
:102D4000207800076DD56069A8B395FAA5F0B0FAB0
:102D500080F008EB8000C0F88054FFF725F9814629
:102D600007E0FFF721F9A0EB0900022801D90320B1
:102D7000BCE697FAA7F0B0FA80F040F06000B5EB3F
:102D8000501F01D130680BE097FAA7F0B0FA80F03D
:102D900040F06000B7EB501F01D1306A00E0706A6C
:102DA00097FAA7F1B1FA81F101F01F0205FA02F1D9
:102DB0000842D6D035E0FFE795FAA5F0B0FA80F0EA
:102DC00008EB8000C0F880B4FFF7EEF8814607E01A
:102DD000FFF7EAF8A0EB0900022801D9032085E6F5
:102DE00097FAA7F0B0FA80F040F06000B5EB501F02
:102DF00001D130680BE097FAA7F0B0FA80F040F00C
:102E00006000B7EB501F01D1306A00E0706A97FA9A
:102E1000A7F1B1FA81F101F01F0205FA02F10842AF
:102E2000D6D1207840076DD54FF00009F069C00079
:102E300009D4F06940F08050F061F06900F08050F2
:102E400000904FF001091A480168C90513D40168C0
:102E500041F480710160FFF7A7F8824607E0FFF7B1
:102E6000A3F8A0EB0A00642801D903203EE610482D
:102E70000068C005F3D5A068012810D0D0B105289E
:102E800021D0306A20F001003062306A20F0040066
:102E90003062A068A8B3FFF787F8824626E0306A60
:102EA00040F001003062F4E70010024000004242AE
:102EB00000700040306A20F001003062306A20F07B
:102EC00004003062E5E7306A40F004003062306AA6
:102ED00040F001003062DCE7FFF766F8A0EB0A0182
:102EE00041F28830814201D90320FFE597FAA7F02B
:102EF000B0FA80F040F04000B5EB501F03D13068CD
:102F00000DE017E04CE097FAA7F0B0FA80F040F03F
:102F10004000B7EB501F01D1306A00E0706A97FAA9
:102F2000A7F1B1FA81F101F01F0105FA01F2104297
:102F3000D2D02EE0FFF738F8824609E0FFF734F8E8
:102F4000A0EB0A0141F28830814201D90320CDE58E
:102F500097FAA7F0B0FA80F040F04000B5EB501FB0
:102F600001D130680BE097FAA7F0B0FA80F040F09A
:102F70004000B7EB501F01D1306A00E0706A97FA49
:102F8000A7F1B1FA81F101F01F0105FA01F2104237
:102F9000D4D1B9F1010F03D1F06920F08050F06174
:102FA000A06980B37168C1F38101022973D04FF029
:102FB00080794FF00077022809D099FAA9F0B0FA89
:102FC00080F048F820B0FEF7EFFF044664E099FA7D
:102FD000A9F0B0FA80F048F820B0FEF7E5FF82468D
:102FE00007E0FEF7E1FFA0EB0A00022801D9032069
:102FF0007CE597FAA7F0B0FA80F040F02000400995
:1030000002D0306801E074E0706A97FAA7F1B1FA73
:1030100081F101F01F0105FA01F10842E1D1F06AE6
:10302000616A20F00F000843F062D4E907100843FA
:10303000716821F476110843706099FAA9F0B0FA2A
:1030400080F048F82050FEF7AFFF044606E0FEF798
:10305000ABFF001B022801D9032047E597FAA7F030
:10306000B0FA80F040F02000400901D0316800E063
:10307000716A97FAA7F0B0FA80F000F01F0005FA25
:1030800000F00142E3D034E0FEF78EFF001B02287F
:1030900002D903202AE515E097FAA7F0B0FA80F0EC
:1030A00040F02000400901D0316800E0716A97FAD1
:1030B000A7F0B0FA80F000F01F0005FA00F001421E
:1030C000E2D116E0012812D07068F16AE36900F4D9
:1030D000C0329A4209D1226A00F47010904204D1A1
:1030E00001F00F00616A884203D00120FEE4012054
:1030F000FCE40020FAE4000070B50446002C02D085
:10310000607F10B106E0012070BD002020772046CE
:1031100000F04EF8022060772168CA2048622168DA
:1031200053204862204600F0CDFFFF25042620B141
:10313000206845626677012070BD206881681B4A5F
:10314000114081602068816862681143D4E90423DA
:103150001A43114381602168E068086120680169B1
:10316000228941EA024101612068C16821F08001A1
:10317000C16020688068800608D4204600F02CF8E2
:1031800020B1206845626677012070BD2068016C1F
:1031900021F4802101642068016CA269114301645B
:1031A0002068456201206077002070BDBFFF8FFF5F
:1031B0000068074988420AD10120C10391FAA1F1B0
:1031C000044AB1FA81F102EB8101C1F800047047B1
:1031D000002800400000424270B505462868C168DA
:1031E00021F0A001C160FEF7DFFE04464FF47A76BD
:1031F00006E0FEF7D9FE001BB04201D9032070BDE6
:103200002868C0688006F4D5002070BD10B5401E47
:10321000B0F1807F01D3012010BD4FF0E024606148
:103220000F21601702F0AEFF0020A061072020618F
:10323000002010BD70477047704710B50446002C41
:1032400003D094F83D0010B107E0012010BD00202C
:1032500084F83C00204600F00DF8022084F83D0080
:10326000211D206801F028F9012084F83D0000208C
:1032700010BD000008B50068154A1649904211D1EA
:10328000886940F400308861886900F4003000905B
:10329000002202211920FEF7EDFEBDE808401920AA
:1032A000FEF7DABE0C4A904211D1886940F48020C2
:1032B0008861886900F480200090002203211A2090
:1032C000FEF7D8FEBDE808401A20FEF7C5BE08BDCF
:1032D0000044014000100240004801400168CA68F3
:1032E00042F00102CA6001688868064A1040062858
:1032F00006D0B0F5803F03D0086840F001000860B8
:1033000000207047070001000168CA6822F001022E
:10331000CA600068016A41F21112114207D1016AC4
:103320009210114203D1016821F0010101600020D7
:103330007047704770B50446206801694FF000057A
:10334000C943890716D4C168C943890712D4E91E45
:1033500001610120207720688069800703D0204622
:10336000FFF7E7FF05E0204600F0AAF8204600F04E
:10337000A8F8257720680169C943490718D4C168AE
:10338000C943490714D46FF004010161022020777A
:103390002068806910F4407F03D02046FFF7C9FF02
:1033A00005E0204600F08CF8204600F08AF82577EA
:1033B00020680169C943090717D4C168C9430907CF
:1033C00013D46FF008010161042020772068C069E0
:1033D000800703D02046FFF7ACFF05E0204600F051
:1033E0006FF8204600F06DF8257720680169C94321
:1033F000C90618D4C168C943C90614D46FF01001B6
:103400000161082020772068C06910F4407F03D054
:103410002046FFF78EFF05E0204600F051F82046D9
:1034200000F04FF8257720680169C943C90708D122
:10343000C168C943C90704D1891E0161204600F053
:1034400041F820680169C943090609D4C168C94324
:10345000090605D46FF0800101612046FFF7EBFEFD
:1034600020680169C943C90509D4C168C94309066F
:1034700005D46FF4807101612046FFF7DBFE206800
:103480000169C943490609D4C168C943490605D43D
:103490006FF040010161204600F015F820680169D5
:1034A000C94389060BD4C168C943890607D46FF0A4
:1034B000200101612046BDE87040FFF7BDBE70BD30
:1034C000704770477047704710B50446002C02D013
:1034D000606F10B107E0012010BD002084F870007B
:1034E000204600F027F8242060672068016821F05A
:1034F00001010160204601F0D3F8012818D0606A6C
:1035000010B1204601F03AF82068416821F490415A
:1035100041602068816821F02A018160206801688B
:1035200041F0010101602046BDE8104001F08AB879
:10353000012010BD70B586B00446142101A8FCF727
:103540009FFE264E216800222548022303240725DA
:10355000B1421BD1816941F480418161816901F4EB
:1035600080410091416941F400214161406900F4CA
:10357000002000903020019002930392049405955E
:1035800001A91848FEF732FC06B070BD164EB142D4
:10359000FAD1C16941F48021C161C16901F480217E
:1035A0000091416941F480214161406900F480202B
:1035B00000904FF4406001900293039204940595AB
:1035C00001A90A48FEF712FC002201212720FEF77C
:1035D00051FD2720FEF740FDD6E7000000380140EE
:1035E0000010024000080048004800400004004865
:1035F000FEE7F0B500230A2530263727002412E025
:10360000B5EB107F04D906EB107C01F813C003E082
:1036100007EB107C01F813C0000101EB430C8CF8A0
:1036200001405B1CDBB29342EAD3F0BD2DE9F041CF
:1036300094B0002411941294139418210BA8FCF751
:103640001FFE282101A8FCF71BFE3A484FF0A041BD
:1036500001604460846001250561447680F8205053
:1036600003264662C46285622021C160C66180F87B
:1036700030400427476104764463FEF793F908B1AC
:10368000FDF720FB119411A92A48FDF73BFF08B173
:10369000FDF718FB0B950C950E940D940F94109458
:1036A0000BA92448FDF7BEFF08B1FDF70BFB0B96F5
:1036B0004FF00208CDF830800BA91E48FDF7B2FF8D
:1036C00008B1FDF7FFFA0B970C960BA91948FDF707
:1036D000A9FF08B1FDF7F6FA019502950494079643
:1036E00003940A9409958DF821408DF820408DF8B7
:1036F00022400694059401A90E48FDF791FB08B1FC
:10370000FDF7E0FA0196CDF8088001A90948FDF718
:1037100087FB08B1FDF7D6FA0197029601A9054883
:10372000FDF77EFB002801D0FDF7CCFA14B0BDE810
:10373000F08100006800002008B50948416941F0A7
:1037400001014161406900F0010000900022114632
:103750000B20FEF78FFCBDE808400B20FEF77CBC79
:10376000001002402DE9F04F87B0142102A8FCF7A9
:1037700087FD6348416941F400114161416901F4E9
:1037800000110191416941F400214161416901F455
:1037900000210191416941F480014161416901F4D5
:1037A00080010191416941F400314161416901F4B5
:1037B00000310191416941F480214161416901F485
:1037C00080210191416941F400014161416901F4A5
:1037D00000010191416941F480114161406900F4A7
:1037E00080100190DFF81C81002244F20401404661
:1037F000FEF7D4FBDFF8109100220F214846FEF7B8
:10380000CDFB4FF0904A002202215046FEF7C6FB46
:10381000DFF8F8B044F28107002239465846FEF737
:10382000BDFB0122D1034046FEF7B8FB002249F25E
:103830004C613748FEF7B2FB0022F8213548FEF70D
:10384000ADFB042002900125039500240494032677
:10385000059602A94046FEF7C9FA680302902E4871
:103860000390049402A94846FEF7C0FA0F20029084
:1038700003950494059602A94846FEF7B7FA02207C
:10388000029003950494059402A95046FEF7AEFAFF
:10389000029703950494059402A95846FEF7A6FAE8
:1038A000B003029003950494059402A94046FEF7E4
:1038B0009DFA49F20C60029003950494059602A9C2
:1038C0001348FEF793FA4020029003950494059460
:1038D00002A90F48FEF78AFA80200290039404940C
:1038E00002A90B48FEF782FAF8200290039504948F
:1038F000059602A90748FEF779FA07B0BDE8F08FF0
:103900000010024000100048000800480004004871
:1039100000180048000C00480000111010B50B48BA
:1039200009490160002141607F228260FF22C2605C
:10393000016141618161FFF7DFFB002803D0BDE831
:103940001040FDF7BFB910BD00280040B8000020AE
:1039500010B50C480A49016047214160002181608F
:1039600040F2E732C2600161416180218161FFF76D
:1039700064FC002803D0BDE81040FDF7A3B910BDDA
:1039800000440140D800002010B50C480A490160ED
:1039900041F61F414160002181600A22C26001613D
:1039A000416180218161FFF748FC002803D0BDE818
:1039B0001040FDF787B910BD0048014018010020F4
:1039C00010B50D480B4901604FF4E1314160002111
:1039D0008160C16001610C2242618161C16101624B
:1039E0004162FFF771FD002803D0BDE81040FDF7EC
:1039F00069B910BD003801405801002010B51148C8
:103A00000F4901604FF49641416000218160C1601F
:103A100001610C2242618161C16101623821416210
:103A20004FF400414163C91081634900C163FFF74E
:103A30004BFD002803D0BDE81040FDF743B910BD91
:103A400000480040D801002010B500220F4910485E
:103A500001F09BFB08B1FDF735F90E490C4801F068
:103A600081FD08B1FDF72EF90B49094801F0BEF8B8
:103A700008B1FDF727F9064801F026FE002803D01B
:103A8000BDE81040FDF71EB910BD00000000002089
:103A900040900020300000201C0000202DE9F04F55
:103AA0008BB014AD0446E0CD8248D0F84CC0CDF8C0
:103AB0001CC0006D0890BDF81C000844ADF824003F
:103AC000BDF81E001044ADF82600BDF820001844D3
:103AD000ADF828007848D0E900128068CDE90412DA
:103AE000069095FBF4F0019096FBF4F0029097FBA2
:103AF000F4F003900027DFF8BC910DF1240809F1E0
:103B00004C09DFF8B8B10DF1040AC0E0049804993B
:103B100038F9100007FB040029F8110000264AE0DC
:103B20000598059938F9100006FB040029F81100E2
:103B3000002512E00698069938F9100005FB0400EC
:103B400029F811005B4803214C3002F0CFFA00F055
:103B5000B7F8DBF80000E8B36D1C06985AF82000AF
:103B6000A842E7DA0598761C5AF82000864221DC44
:103B70000598059938F9100006FB040029F8110092
:103B800006985AF82050002D14DB0698069938F94B
:103B9000100005FB040029F81100464803214C30B1
:103BA00002F0A4FA00F08CF8DBF8000060B36D1EA0
:103BB000002DEADA761C05985AF82000B042AFDAF8
:103BC00004987F1C5AF8200087425FDC049838F97B
:103BD000100000E013E0049907FB040029F811002D
:103BE00005995AF82160002E50DB0598059938F99F
:103BF000100006FB040029F8110000251AE04FF020
:103C0000FF300BB0BDE8F08F4FF0FF30F9E70698BA
:103C1000069938F9100005FB040029F81100254821
:103C200003214C3002F062FA00F04AF8DBF80000A1
:103C3000C8B36D1C06985AF82000A842E7DA761E31
:103C400021D40598059938F9100006FB040029F8DD
:103C5000110006985AF82050002D14DB069806999A
:103C600038F9100005FB040029F811001148032160
:103C70004C3002F03BFA00F023F8DBF80000B0B162
:103C80006D1E002DEADA761E002EAEDA7F1C049837
:103C90005AF82000B842BFF639AF032107A802F056
:103CA00025FA0020ADE7FFE74FF0FF30A9E74FF01E
:103CB000FF30A6E7E88F00203863000800000010FE
:103CC00000B5ADF6CC3D03211848FCF7FCFF1848C1
:103CD000FFF704FB012202214FF09040FEF75EF94E
:103CE0001248B0F8C81B0229FBD13C208DF8040013
:103CF0001048C16CCDF80510016DCDF80910406D6C
:103D0000CDF80D0040F6B83208490DF11100FCF76E
:103D10009EFA3E208DF8C90B40F6C63201A906482E
:103D2000FCF786FE0DF6CC3D002000BDB803002058
:103D3000D8000020E88F0020840F0020FEE700005C
:103D40002DE9F0418EB00A219FED2A0ADFED2A0A03
:103D50002A480190012205920290022306930390C3
:103D6000042607960490082708974FF00008CDF81E
:103D700034800C920B918DED090ACDED0A0A01A950
:103D80001F48FCF7A1FE1F4C019405961E4D02959D
:103D90000697039510200790049520200890CDF8F1
:103DA0003480174801A95838FCF78EFE0194059716
:103DB00002954020069003958020079013480490B8
:103DC00008960F4801A9B038FCF77EFE0194300236
:103DD000059002944001069003948011079004948A
:103DE000C0000890064801A95830FCF76DFE0EB0DF
:103DF000BDE8F0810000B43D1CC7B13F0008004899
:103E00000803002000180048000C0048001000487B
:103E100070472DE9F05F044640F68F7840F2064780
:103E200040F202493FE1B0F8441001F00F0656B3EA
:103E300030F826A05FEA0A4174D530F8261001EA6E
:103E4000080141F0800120F8261004EB461505F525
:103E50009475287B00287ED02978206830F82120AE
:103E6000520479D5B0F8502009EBC1010244515AEF
:103E7000C1F3090BBBF1000F04D02A895B466969C5
:103E800002F003F9CAE0C9062CD4018848F60F7283
:103E9000114041F40041018004F128052068B0F888
:103EA00050100844297809EBC101405AC0F30900B9
:103EB000E86169690844686100212046FEF727F936
:103EC00094F824000028ADD0A8690028AAD194F85D
:103ED0002400216840F08000A1F84C00002084F804
:103EE0002400E0E004F5947501880A051BD5B0F8BC
:103EF00050100844297807EBC101405AC0F3090368
:103F0000EB61EA8804F50C71206802F0BEF82068C5
:103F1000018801EA080141F0800101802046FEF796
:103F200008FBC0E09BE0090454D5018801EA0801C0
:103F300041F0800101802068B0F8501008442978D1
:103F400007EBC101405AC0F30900E86188B1696913
:103F500079B183B201E03EE050E0EA88206802F0E7
:103F600094F8E96968690844686100212046FEF711
:103F7000D5F82068B0F85010014401F206412869D4
:103F800058B13E2810D84208C00700D0521C4FF646
:103F9000FF7000EA822008800FE0088820F4F840D3
:103FA00040F40040088008E04209C00600D1521EDB
:103FB0004FF4004040EA82200880206801884BF6D8
:103FC0008F72114081F4805181F4005148F28002D7
:103FD0001143018067E02068B0F850102A7801444E
:103FE00007EBC202895AC1F3090BBBF1000F21D0C4
:103FF000EA885B46696902F048F81BE0B0F8502097
:1040000007EBC1010244515AC1F3090BBBF1000F88
:1040100004D06A895B46696902F037F8297820681C
:1040200030F8212048F68F731A4048F2C0031A4333
:1040300020F82120E8695844E861686900EB0B0228
:104040006A61AB6913B12869584504D929782046BB
:10405000FEF764F803E029782046FEF7E6F85FEA09
:104060000A6020D504EB46102830216831F826205C
:1040700048F60F731A4042F4004221F826202168C6
:10408000B1F850201144027809EBC202895AC1F3F9
:104090000901C16142690A444261836963B10178DF
:1040A0002046FEF70EF92068B0F8441009043FF5E9
:1040B000BAAE0020BDE8F09F01782046FEF727F851
:1040C000F1E7704770B505462868C168490613D402
:1040D0004FF0FF31C160FDF767FF04464FF47A7679
:1040E00006E0FDF761FF001BB04201D9032070BD5F
:1040F0002868C0684006F4D5002070BD70472030A5
:10410000818DC26909049161C18D026A09049161BE
:10411000018E426A09049161418E826A09049161AB
:1041200050F82019082945D2DFE801F0040E141ECA
:10413000242E343EC26BB0F84C109161026CB0F882
:104140004E10916102F0F6B8026CB0F84E10916119
:1041500002F0F0B8026CB0F84E109161426CB0F809
:104160005010916102F0E6B8426CB0F850109161C5
:1041700002F0E0B8426CB0F850109161826CB0F877
:104180005210916102F0D6B8826CB0F85210916171
:1041900002F0D0B8C26BB0F84C109161826CB0F8EC
:1041A0005210916102F0C6B8C26BB0F84C10916128
:1041B00002F0C0B87047007800F00100704710B5F9
:1041C000044610461946FCF766F800EE900A94ED96
:1041D0000D1A80EE810A10EE100AFCF772F8024602
:1041E0002046BDE810400B4600F017B810B5044655
:1041F00010461946FCF74FF800EE900A94ED0E1A9F
:1042000080EE810A10EE100AFCF75BF802462046A9
:10421000BDE810400B46FFF7D2BF30B414461D4630
:10422000D0E906130A1B63EB050300242146A41AF8
:10423000994102DA30BC00F019B819460023524205
:1042400030BC63EB010300F066B8016A082901D1B4
:1042500000210162016A491C0162D0E90612491C71
:1042600042F10002C0E90612FFF749BF10B5D0E9DC
:104270000A41A41A61EB0301C0E90A411A4303D0C1
:10428000016841F00101016010BD70B50346D3E93A
:104290000645D3E90A0180EA040281EA05063243B1
:1042A00006D0001BA9411DDA184600F023F81CE0D7
:1042B0001433188F996A00048861588FD96A0004F2
:1042C0008861988F196B00048861D88F596B00043E
:1042D000886153F8140C20F0010043F8140C4FF0DF
:1042E000FF3070BD1846FFF7B0FF1846FFF707FF15
:1042F000002070BD016A002901D108210162016A14
:10430000491E0162D0E90612491E42F1FF32C0E99E
:104310000612FFF7F4BE10B5D0E90A41A4185941BE
:10432000C0E90A411A4303D0016841F0010101606C
:1043300010BDFDF73FBE000030B5A5B028211BA879
:10434000FBF79EFF142116A8FBF79AFF5821684639
:10435000FBF796FF09201B904FF4A0201C90012032
:104360001E90209002252195000422904FF4E01029
:104370002390002424941BA8FEF7A0FB08B1FCF7AF
:10438000A1FC0F201690179518944FF48060199097
:104390001A94022116A8FEF74BFA08B1FCF792FC1A
:1043A0000A480090029404944FF480700A904000F0
:1043B00001901594129413946846FEF7EDF80028C6
:1043C00001D0FCF77FFC25B030BD000085008301E3
:1043D0000548016841F47001016003494FF0006035
:1043E000803908607047000088ED00E010B50A4889
:1043F000016821F0010101600848FFF746FF074806
:104400005830FFF742FF0548B030FFF73EFFBDE8E8
:1044100010400348FFF739BF104801405802002000
:104420006003002070B52148FEF784FF4FF09045EF
:10443000002202212846FDF7B1FD1D48FCF7D8FFF8
:1044400064211B48FCF76AFF194C2068D0F88000F3
:1044500081B21848FCF74DFC2068D0F8840081B286
:104460001448FCF746FC2068D0F8880081B2114857
:10447000FCF73FFC0446601C02D10C48FEF744FFE9
:10448000012C12D1094C2068016821F00101016062
:104490006420FDF799FC012202212846FDF77EFDEC
:1044A0002068016841F00101016070BDD800002062
:1044B00068000020B80300202DE9F04F0268274E65
:1044C000DFF89C90DFF89CA0274B284C4FF0804BE6
:1044D000B04209D0584507D0484505D0504503D0D3
:1044E000984201D0A04203D122F070054A682A43C5
:1044F0001F4FDFF880C0DFF88080B0420FD05845F2
:104500000DD048450BD0504509D0984207D0B8424D
:1045100005D0604503D0404501D0A04203D122F42C
:104520004075CA682A434D6922F080022A4302601E
:104530008A68C2620A688262B04209D0984207D093
:10454000B84205D0604503D0404501D0A04201D11A
:104550000969016301214161BDE8F08F002C014030
:1045600000040040000800400034014000500140B9
:1045700000400140004401400048014090F82410F0
:10458000C90706D001684A68836A22F400321A43D8
:104590004A6090F82410890706D501684A68C36A02
:1045A00022F480321A434A6090F82410490706D555
:1045B00001684A68036B22F480221A434A6090F82B
:1045C0002410090706D501684A68436B22F40042AB
:1045D0001A434A6090F82410C90606D501688A6813
:1045E000836B22F480521A438A6090F82410890663
:1045F00006D501688A68C36B22F400521A438A60A8
:1046000090F82410490611D501684A68036C22F419
:1046100080121A434A60016CB1F5801F06D101680F
:104620004A68436C22F4C0021A434A6090F824108E
:10463000090606D501684A68806C22F4002202430C
:104640004A607047F8B504460026E667FDF7ACFC03
:104650000746206800686FF07E4500070AD53B4694
:1046600000224FF400112046009500F063F908B1D4
:104670000320F8BD2068006840070AD53B460022A9
:104680004FF480012046009500F054F908B1032052
:10469000F8BD20206067A06784F870600020F8BD36
:1046A0002DE9F041044600200025A2682169E36954
:1046B0000A43616919430A4321680B68944E3340E9
:1046C00013430B6021684A68E36822F440521A439E
:1046D0004A60A169226A0A4321688B6823F4306327
:1046E00013438B608B4E21688B4A4FF48033B14269
:1046F00013D1116B11F0030107D0012909D0022950
:1047000009D0032903D010216FE001216DE00221BF
:104710006BE0042169E0082167E0804EB14215D1C9
:10472000116B11F4403109D099420BD0B1F5003F23
:104730000AD0B1F5403F03D0102156E0002154E0EB
:10474000022152E0042150E008214EE0744EB142B3
:1047500016D1116B11F440210AD0B1F5802F0BD086
:10476000B1F5002F0AD0B1F5402F03D010213CE065
:1047700000213AE0022138E0042136E0082134E04B
:10478000684EB14216D1116B11F440110AD0B1F547
:10479000801F0BD0B1F5001F0AD0B1F5401F03D028
:1047A000102122E0002120E002211EE004211CE073
:1047B00008211AE05C4EB14216D1116B11F4400190
:1047C0000AD0B1F5800F0BD0B1F5000F0AD0B1F5CA
:1047D000400F03D0102108E0002106E0022104E090
:1047E000042102E0082100E01021E7694FF40042B3
:1047F0004FF6EF76974245D1092933D2DFE801F031
:10480000050F1932213232322B00FEF7F3F8410046
:10481000606801EB5001B1FBF0F080B223E0FEF7DD
:10482000FFF84100606801EB5001B1FBF0F080B28D
:1048300019E03E49606801EB5001B1FBF0F080B235
:1048400011E0FEF703F94100606801EB5001B1FB94
:10485000F0F080B207E0606803EB5001B1FBF0F0CC
:1048600080B200E00125A0F11001B14208D84FF656
:10487000F0710140C0F3420001432068C16040E094
:1048800001253EE0092933D2DFE801F0050F193296
:10489000213232322B00FEF7ADF80146606801EBA1
:1048A0005001B1FBF0F080B223E0FEF7B9F8014609
:1048B000606801EB5001B1FBF0F080B219E01C49D7
:1048C000606801EB5001B1FBF0F080B211E0FEF73F
:1048D000BDF80146606801EB5001B1FBF0F080B219
:1048E00007E0606802EB5001B1FBF0F080B200E03D
:1048F0000125A0F11001B14202D82168C86000E092
:1049000001250020206660662846BDE8F081000091
:10491000F369FFEF003801400010024000440040FE
:1049200000480040004C0040005000400024F400CB
:1049300000127A002DE9F0470446089D0E461746FE
:1049400098464FF0000A4FF020093BE0681C39D030
:10495000FDF72AFBA0EB0800A84221D805B3206888
:10496000016849072ED5C069C04300052AD42168D3
:104970004FF4006008622068016821F4D071016082
:104980002068816821F001018160C4F87490C4F846
:104990007890C4F87C9084F870A00320BDE8F0877C
:1049A0002068016821F4D07101602068816821F0DD
:1049B00001018160C4F87490C4F8789084F870A004
:1049C0000320EBE72068C06936EA000004D000202D
:1049D000B842BBD00020E1E70120F9E710B5012182
:1049E0000348FBF7BEFFBDE810400148FCF739B8AB
:1049F000840F00202DE9F041D0F8B822D0F8C05241
:104A0000002A19D001EB810300EB83030026DC6947
:104A10003CB105EB4115AD6BB4FBF5F705FB174455
:104A200024B1C2F814620020BDE8F081DE610023E9
:104A30001A4600F07AFDF6E70220F5E770B5054664
:104A4000D5F8B842284600F076FCC4F80C02D5F838
:104A5000B80248B1D5F8BC12D4F80402CA6804F50B
:104A600003719047002070BD022070BD70B50446F0
:104A700000268121204600F0A7FB0025E5620121E8
:104A8000204600F0A1FBC4F86C518221204600F0C2
:104A90009BFB2564D4F8B80240B104F52E7460681D
:104AA00040688047206800F06EFF2560304670BD8A
:104AB00010B5D0F8B842D0F8BC1200290BD094F849
:104AC0000002FF2807D08B6894F8012221469847FE
:104AD000FF2084F80002002010BD00000A210180A0
:104AE000004870474800001043210180004870478B
:104AF00098000010432101800048704754000010C6
:104B00004321018000487047DC0000102DE9F0418E
:104B100004460026207C01254FF40077002832D07F
:104B2000402302228121204600F058FCE562402308
:104B300002220121204600F051FCC4F86C510823E8
:104B400003228221204600F049FC25644FF40770BF
:104B500000F01AFFC4F8B80228B30546D4F8BC0226
:104B6000006880470020C5F81402C5F81802207CB0
:104B7000D8B1402301212046D5F8042200F03AFCA8
:104B80003046BDE8F0813B4602228121204600F0FC
:104B900025FCE5623B4602220121204600F01EFC76
:104BA000C4F86C51CBE70126EAE73B4601212046D9
:104BB000D5F8042200F01EFCE2E710B5D0F8B812D8
:104BC000002911D0027C3AB1D1F8042240230121FE
:104BD00000F010FC002010BDD1F804224FF4007347
:104BE000012100F007FCF5E7022010BD024602207B
:104BF000002902D0C2F8BC1200207047D0F8B802D9
:104C0000C0F8041200207047D0F8B802C0F80812AB
:104C1000C0F81022002070472DE9FC4105460C46E3
:104C2000D5F8B8720020019000900026207810F08E
:104C300060012DD0202907D02146284600F0A2F897
:104C400002263046BDE8FC81E288CAB100060BD5D9
:104C5000D5F8BC1260788B6839469847E2883946A7
:104C6000284600F0B5F8ECE7607887F80002A079F4
:104C700087F80102E2883946284600F08FF8E0E71D
:104C8000D5F8BC12607800228B6821469847D8E797
:104C9000607848B10A2817D00B2825D0214628462D
:104CA00000F070F80226CCE795F89C02032805D0A6
:104CB0002146284600F066F80226C2E7022269462D
:104CC000284600F085F8BCE795F89C02032805D03B
:104CD0002146284600F056F80226B2E7012201A933
:104CE000284600F075F8ACE795F89C020328A8D098
:104CF0002146284600F046F80226A2E710B5D0F873
:104D0000B812002912D0D1F814220AB1012010BD26
:104D100001F502710122CA608A6802630A8993B2AE
:104D20000A68812100F001FC002010BD022010BDA6
:104D300010B5D0F8B42252689047002010BD90F80A
:104D40009C22012A05D0022A03D0032A01D000F0B8
:104D500019B84988012904D10021C0F8A41200F033
:104D600044B8704710B513460A46002100F042FBD4
:104D7000002010BD10B513460A46002100F0D5FBF7
:104D8000002010BD10B504468021204600F0B3FB82
:104D90002046BDE81040002100F0ADBB10B5032354
:104DA000C0F89432C0F85C21C0F8602113460A466E
:104DB000002100F01FFB002010BD10B50521C0F838
:104DC000941200231A46194600F014FB002010BD6F
:104DD00010B50223C0F89432C261026213460A463B
:104DE000002100F0A2FB002010BD10B50421C0F886
:104DF000941200231A46194600F097FB002010BDBC
:104E000010B5002806D00A46054906A000F08CF926
:104E1000034810BD0A46024902A000F085F9F7E7F1
:104E20000493002043444320436F6E66696700008B
:104E300012200880004870470800001010B50028B4
:104E400006D00A46054906A000F06EF9034810BDD9
:104E50000A46024902A000F067F9F7E70493002030
:104E600043444320496E74657266616365000000C7
:104E700004200880004870470400001010B50A465E
:104E8000024903A000F050F9004810BD049300202F
:104E900053544D6963726F656C656374726F6E69AC
:104EA0006373000010B5002806D00A46054906A025
:104EB00000F03AF9034810BD0A46024902A000F08A
:104EC00033F9F7E70493002053544D3332205669E9
:104ED000727475616C20436F6D506F7274000000C6
:104EE00010B51A200880FBF735FF014810BD0000FF
:104EF0001C0000100A46D188012902D01146FFF794
:104F000041BF90F89C12012906D0022904D0032940
:104F100009D01146FFF736BF00218160012200F160
:104F20000801FFF755BF0122011DFFF751BF2DE911
:104F3000F84304460F46002000900026002578889C
:104F4000010A082970D2DFE801F0AB040C22ABABF8
:104F50008B9AD4F8B012207C0A68694690470646BE
:104F6000A3E0207C4FF0020840B1D4F8B402C16A3B
:104F700068468847064686F8018096E0D4F8B40271
:104F8000816A68468847064686F801808DE0C0B28F
:104F900006285FD2DFE800F0031221303F4FD4F83B
:104FA000B002426822B1207C6946904706467CE008
:104FB00039462046FFF7E6FE012576E0D4F8B00238
:104FC000826822B1207C6946904706466DE03946EA
:104FD0002046FFF7D7FE012567E0D4F8B002C2688B
:104FE00022B1207C6946904706465EE0394620465D
:104FF000FFF7C8FE012558E0D4F8B002026922B1DB
:10500000207C6946904706464FE039462046FFF728
:10501000B9FE012549E0D4F8B00242692AB1207CEA
:1050200069469047064640E03AE039462046FFF799
:10503000A9FE012539E0D4F8B002826922B1207CB2
:1050400069469047064630E039462046FFF79AFE0B
:1050500001252AE039462046FFF794FE012524E089
:10506000207C28B139462046FFF78CFE01251CE044
:10507000D4F8B402416B68468847064615E0207CA8
:1050800028B139462046FFF77DFE01250DE0D4F812
:10509000B402016B6846884706460721717004E038
:1050A00039462046FFF76EFE0125002D12D1BDF8CE
:1050B000000048B1FA883AB1824200D90246009213
:1050C00031462046FFF784FEF888002802D12046AA
:1050D000FFF78BFEBDE8F883002102E0491CC9B24E
:1050E000401C0278002AF9D1084670470A4690F819
:1050F0009C12012906D0022904D0032902D01146AE
:10510000FFF740BED188022902D01146FFF73ABE10
:105110000121C160D0F8A41209B10321C1600222AB
:1051200000F10C01FFF754BE70B504460D4616465B
:10513000002C17D02046FFF7CFFF022101EB4000E3
:10514000308030782870032102206970002306E047
:10515000411CC9B22A54641C481CC0B26B5422784A
:10516000002AF5D170BD01460020002906D0012992
:1051700005D0022905D0032905D00220704702205E
:105180007047012070470220704710B5002810D0EA
:10519000D0F8B43213B10023C0F8B43209B1C0F86A
:1051A000B012012180F89C12027000F0C9F80020B2
:1051B00010BD022010BD10B5D0F8C002FCF7D8FF1A
:1051C000BDE81040FFF7CFBF10B5D0F8C002FCF724
:1051D000ADFFBDE81040FFF7C6BF70B504461346EB
:1051E000002909D0D4F8B40242691AB194F89C029B
:1051F000032859D0022070BD04F11400D4F8941291
:105200000025022903D0042940D0F1B342E0D0E9BF
:1052100003218A420DD9511AC1608AB2194620462B
:10522000FFF7A8FD00231A461946204600F0E2F8D1
:1052300030E08068B0FBF1F201FB12029AB98842BB
:1052400011D3D4F8981288420DD20022114620467C
:10525000FFF790FDC4F8985200231A4619462046DD
:1052600000F0C8F816E0D4F8B402C16829B194F887
:105270009C02032801D1204688478021204600F067
:105280003AF92046FFF799FD04E0FFE78021204628
:1052900000F031F994F8A002012807D1204600F06F
:1052A0006AF984F8A05201E020469047002070BDC2
:1052B00070B5044608461146002809D0D4F8B41247
:1052C0008A691AB194F89C1203292FD0022070BD6C
:1052D00004F5AA70D4F89432032B02D0052B1DD00C
:1052E00027E0D0E903539D420AD9EB1AC360006955
:1052F000834200D303469AB22046FFF733FD18E0FD
:10530000D4F8B402016929B194F89C02032801D1B0
:10531000204688472046FFF768FD0AE00020C4F8D1
:1053200094020021204600F0E6F802E00146204603
:105330009047002070BDD0F8C002FCF743BF0000CA
:1053400010B504461C48C0F86842C4F8C0021B49A6
:1053500001600821416002218160016100218161B9
:10536000C1610162FDF74CF808B1FBF7ABFC04F535
:1053700030740022182311462068FCF7ADFE582334
:10538000002280212068FCF7A7FEC0230022812193
:105390002068FCF7A1FE4FF48873002201212068E9
:1053A000FCF79AFE4FF48073002282212068FCF7FC
:1053B00093FE002010BD0000F49E0020005C004021
:1053C0000A06D0F8C00201F07F0100EB411002D5BF
:1053D00090F82A00704790F82A01704710B51446DB
:1053E0001A46D0F8C0022346FCF7F3FEBDE8104091
:1053F000FFF7B9BE10B5D0F8C002FCF716FFBDE844
:105400001040FFF7B0BE70B504460022402311469D
:105410002046FFF7E3FF0125C4F858514026C4F8A1
:1054200064614023002280212046FFF7D7FFA56159
:10543000666284F89C520020C4F894026060C4F84C
:10544000A402D4F8B80228B1D4F8B402002142680A
:1054500020469047002070BD90F89C12042903D18B
:1054600090F89D1280F89C120020704710B590F8BB
:105470009C12032904D1D0F8B412C96901B188473C
:10548000002010BD01740020704710B5D0F8C00294
:10549000FDF73BF8BDE81040FFF765BE70B5044668
:1054A00004F52A70054600F049F80120C4F894027A
:1054B000B4F8AE02C4F8980294F8A82212F01F00C3
:1054C0000AD001280DD0022810D002F08001204619
:1054D00000F011F8002070BD2946204600F0F9F8D0
:1054E000F8E72946204600F01BFAF3E72946204654
:1054F00000F024F9EEE710B5D0F8C002FCF7AEFEDC
:10550000BDE81040FFF72FBE10B5D0F8C002FDF780
:1055100017F8BDE81040FFF726BE00F527700178A8
:105520004170042101700020704710B5D0F8C0020E
:10553000FCF7C7FEBDE81040FFF715BE0A78027001
:105540004A7842708A78CB7802EB032242800A794B
:105550004B7902EB032282808A79C97902EB01211F
:10556000C180704702460020002902D0C2F8B41260
:105570007047022070470020704770B50446888845
:10558000002821D1C888F8B9488880281CD200F0AA
:105590007F0594F89C0203280DD084F89E5229467A
:1055A0002046FFF772FF2046FFF71FFC45B102209F
:1055B00084F89C0270BD2046BDE87040FFF7E2BB56
:1055C000012084F89C0270BD2046BDE87040FFF7C2
:1055D000D9BB10B50224D0F8B422002A03D0126837
:1055E000904700B90024204610BD000070B5044665
:1055F0000E46304DB1782970012905D93146204633
:10560000BDE87040FFF7BEBB94F89C0202280BD0A7
:10561000032823D031462046FFF7B4FB29782046E3
:10562000BDE87040FFF784BB99B16160032084F846
:105630009C022046FFF7CDFF022804D02046BDE89B
:105640007040FFF7D2BB31462046BDE87040FFF7FF
:1056500099BB2046BDE87040FFF7C7BB91B16068B9
:10566000884221D0C1B22046FFF762FB29786160F1
:105670002046FFF7AEFF022810D02046BDE870405C
:10568000FFF7B3BB022084F89C0261602046FFF75D
:105690004FFB2046BDE87040FFF7A7BB31462046D0
:1056A000BDE87040FFF76EBB2046BDE87040FFF7D5
:1056B0009CBB0000440000104988012903D1C0F8B8
:1056C000A412FFF792BB704710B5FFF71DFF002033
:1056D00010BD10B500240A7812F060020CD0202A08
:1056E00005D0402A03D0FFF74DFB204610BDD0F86F
:1056F000B42292689047F8E74A780A2A1BD2DFE87A
:1057000002F011171A141A08051A0E0BFFF70FFCF6
:10571000EBE7FFF732FFE8E7FFF768FFE5E7FFF7A2
:10572000E9FBE2E7FFF7E2FCDFE7FFF7C5FFDCE7B5
:10573000FFF705FBD9E7FFF725FBD6E72DE9F04199
:1057400004460A4600261179137813F0600011D040
:10575000202808D0402806D011462046FFF712FB2B
:105760003046BDE8F081D4F8B40211468368204683
:105770009847F5E7C3F3411001280BD05078002873
:1057800060D0012837D003280CD011462046FFF7FF
:10579000F9FAE5E7D4F8B402114683682046BDE87B
:1057A000F041184794F89C02022806D0032814D030
:1057B00011462046FFF7E6FAD2E749B1802907D023
:1057C0002046FFF798FE80212046FFF794FEC7E7AA
:1057D00011462046FFF7D6FAC2E7508838B931B1F2
:1057E000802904D0D08810B92046FFF784FE2046D7
:1057F000FFF7FBFAB4E794F89C02022806D00328CE
:1058000014D011462046FFF7BDFAA9E749B1802917
:1058100007D02046FFF76FFE80212046FFF76BFE82
:105820009EE711462046FFF7ADFA99E75088002819
:1058300096D1480602D02046FFF7BDFC2046FFF770
:10584000D4FA8DE794F89C020027022806D003289A
:1058500024D011462046FFF795FA81E731B180291F
:1058600004D011462046FFF78DFA79E7080607D5E0
:1058700001F07F0000EB800004EB8001143107E0B1
:1058800001F07F0000EB800004EB800101F5AA71BC
:105890000F6002222046FFF79BFA61E708060CD54D
:1058A00001F00F0000EB800004EB8000806968B914
:1058B00011462046FFF766FA52E701F00F0000EBB1
:1058C000800004EB8000D0F8580148B108060CD5E0
:1058D00001F07F0000EB800004EB800514350CE044
:1058E00011462046FFF74EFA3AE701F07F0000EB41
:1058F000800004EB800505F5AA7541B1802906D02A
:105900002046FFF75DFD20B10120286002E02F60F6
:1059100000E02F60022229462046FFF759FA1FE7D0
:1059200070B505460C46207810F0600209D0202A98
:1059300007D0402A05D021462846FFF723FA002049
:1059400070BD95F89C22012A08D0022A06D0032AAD
:1059500004D021462846FFF715FAF0E72079012800
:105960000CD8D5F8B4022146826828469047E188D1
:105970000143E4D12846FFF738FAE0E721462846FC
:10598000FFF700FADBE7704700487047D49C00201F
:105990002DE9F04700270D7830F8252048F68F13C1
:1059A0001A40CB78002B7DD0012B79D0022B02D06E
:1059B000032B7AD0012748F28004224320F82520C7
:1059C0000A7830F8223048F68F752B401343234372
:1059D00020F822300B7B48F6BF724BF68F7848F2E6
:1059E000C0064CF2800CE3B30B7830F8239009EA40
:1059F000050948F2801A49EA0A0920F82390B0F80C
:105A00005030034491F8009003EBC903B1F80890BB
:105A100029F00109A3F80094B0F85030034491F83C
:105A2000009003EBC903B1F80A9029F00109A3F82B
:105A300004944B78002B70D00B7830F823905FEAF9
:105A4000494907D530F8239009EA050949EA0C09C4
:105A500020F823900B7830F823905FEA496909D544
:105A600000E028E030F8239009EA050949EA060930
:105A700020F823900B7830F823602E4046EA0C067D
:105A800020F82360CB78012B71D00B7830F82350AD
:105A9000154085F02002224320F82320CAE001E0CF
:105AA00006E002E042F4007285E742F4C06282E759
:105AB00042F480627FE74B7883B3B0F85030034400
:105AC00091F800C003EBCC03B1F806C02CF0010C38
:105AD000A3F800C40B7830F823C05FEA4C6C07D5FC
